S0140000566F6C756D655265616465722E7372656345
S113000035C000005AC0000058C0000056C00000AF
S113001054C0000052C0000050C000004EC0000098
S11300204CC000004AC0000048C0000046C00000A8
S113003044C0000042C0000040C000003EC00000B8
S11300400C94B5083AC00000EEC500002DC60000AF
S113005034C0000032C0000030C000002EC00000D8
S11300602CC000002AC0000013040E0711241FBE78
S1130070CFEFD8E0DEBFCDBF11E0A0E0B1E0E0E615
S1130080F8E102C005900D92AA37B107D9F723E031
S1130090AAE7B1E001C01D92A334B207E1F710E072
S11300A0CCE6D0E004C02297FE010E945E09C83667
S11300B0D107C9F709D70C942E0CA2CF70E0FB012D
S11300C0EE0FFF1FEE0FFF1FEE0FFF1FE558FE4F51
S11300D0878181111FC0FB01EE0FFF1FEE0FFF1F71
S11300E0EE0FFF1FE558FE4F8681A481B5812C9148
S11300F041E050E0BA0102C0660F771F8A95E2F72B
S1130100CB018095909530E0822393238C9381E0FA
S11301108783089580E0089570E0FB01EE0FFF1FD0
S1130120EE0FFF1FEE0FFF1FE558FE4F8781813052
S1130130D1F4FB01EE0FFF1FEE0FFF1FEE0FFF1FA9
S1130140E558FE4F3681A081B1812C9181E090E089
S113015002C0880F991F3A95E2F7822B8C9382E0B4
S1130160878381E0089580E00895DB01EC91F0E05D
S1130170EE0FFF1FEE0FFF1FEE0FFF1FE558FE4FA0
S1130180A281B3818C912681668141E050E0FA011D
S113019002C0EE0FFF1F2A95E2F79F0190E028238B
S11301A0392302C0359527956A95E2F7822F932F5C
S11301B00895FB018081823051F0833079F08130E1
S11301C099F483B191818923FA018083089586B1DA
S11301D0FB0191818923FA018083089589B1FB0190
S11301E091818923FA01808308956E3018F4683070
S11301F050F403C0643128F402C083E0089582E01F
S1130200089584E0089581E00895AF92BF92DF924B
S1130210EF92FF920F931F93CF93DF93DA0159016B
S11302208D919C911197181619060CF0C4C0E62FF5
S1130230F72F80E090E004E021E030E06894EE24C1
S1130240E1F814E0FF24F3940F2EF3E0DF2EF02DF9
S113025041914E3018F44830D8F504C0443108F0C8
S1130260A2C06CC00097F9F00330C9F450E0440F09
S1130270551F440F551F440F551F45585E4FEA0143
S11302804E81E5016881E90102C0CC0FDD1F4A956A
S1130290E2F7AE01460F511DE501488384C0E50134
S11302A01882012F80C050E0440F551F440F551F82
S11302B0440F551F45585E4FEA014E81D22F01C0AD
S11302C0DD0F4A95EAF74D2FE50148830D2D6BC0EC
S11302D00097F9F00130C9F450E0440F551F440F62
S11302E0551F440F551F45585E4FEA014E81E501E5
S11302F06881E90102C0CC0FDD1F4A95E2F7AE0127
S1130300460F511DE50148834EC0E5011882012FB7
S11303104AC050E0440F551F440F551F440F551F4A
S113032045585E4FEA014E81D22F01C0DD0F4A9538
S1130330EAF74D2FE50148830F2D35C00097F9F0FA
S11303400230C9F450E0440F551F440F551F440FA9
S1130350551F45585E4FEA014E81E5016881E90168
S113036002C0CC0FDD1F4A95E2F7AE01460F511DC6
S1130370E501488318C0E5011882012F14C050E03C
S1130380440F551F440F551F440F551F45585E4FCA
S1130390EA014E81D22F01C0DD0F4A95EAF74D2FB5
S11303A0E50148830E2D01966D917C911197861776
S11303B097070CF44DCFDF91CF911F910F91FF90D0
S11303C0EF90DF90BF90AF90089580917A018111F2
S11303D05BC14BE250E050937C0140937B0129E2E6
S11303E030E030937E0120937D018AE290E0909387
S11303F0800180937F0110928101109282015093B9
S11304008401409383013093860120938501909366
S113041088018093870161E06093890110928A01C9
S113042050938C0140938B0130938E0120938D0166
S11304309093900180938F01A2E0A0939101109278
S11304409201509394014093930130939601209329
S113045095019093980180939701F3E0F0939901AB
S113046010929A0150939C0140939B0130939E01FA
S113047020939D019093A00180939F01E4E0E09379
S1130480A1011092A2015093A4014093A3013093BF
S1130490A6012093A5019093A8018093A70175E07C
S11304A07093A9011092AA015093AC014093AB013F
S11304B03093AE012093AD019093B0018093AF01CE
S11304C0B6E0B093B1011092B2015093B4014093DD
S11304D0B3013093B6012093B5019093B801809392
S11304E0B70187E08093B9011092BA0145E250E068
S11304F05093BC014093BB0123E230E03093BE0132
S11305002093BD0184E290E09093C0018093BF01E9
S11305101092C1011092C2015093C4014093C301CF
S11305203093C6012093C5019093C8018093C701FD
S11305306093C9011092CA015093CC014093CB013E
S11305403093CE012093CD019093D0018093CF01BD
S1130550A093D1011092D2015093D4014093D301BE
S11305603093D6012093D5019093D8018093D7017D
S1130570F093D9011092DA015093DC014093DB012E
S11305803093DE012093DD019093E0018093DF013D
S1130590E093E1011092E2015093E4014093E301FE
S11305A03093E6012093E5019093E8018093E701FD
S11305B07093E9011092EA0148E250E05093EC0193
S11305C04093EB0126E230E03093EE012093ED01FD
S11305D087E290E09093F0018093EF011092F10193
S11305E01092F2015093F4014093F3013093F60119
S11305F02093F5019093F8018093F7016093F9013A
S11306001092FA015093FC014093FB013093FE01D8
S11306102093FD01909300028093FF01A0930102B7
S11306201092020250930402409303023093060294
S1130630209305029093080280930702F093090225
S113064010920A0250930C0240930B0230930E0254
S113065020930D029093100280930F02E0931102F5
S11306601092120250931402409313023093160214
S11306702093150290931802809317027093190225
S113068010921A0260937A0108959FCE08951F93E1
S1130690CF93DF93EC01162FF8DF1B83612FCE017C
S11306A00DDD811104C082E0888319820AC06B8148
S11306B0CE0132DD811104C082E08883198201C039
S11306C01882DF91CF911F910895CF93DF93EC01AE
S11306D0888181110CC0BE016D5F7F4FCE0145DD65
S11306E0892B19F481E0898302C082E08983DF9138
S11306F0CF910895FC012281222319F010921B024C
S113070004C0FC01818180931B0280911B02089527
S113071040E052EC61E070E080E992E000D3A6C1D1
S1130720AF92BF92CF92DF92EF92FF920F931F93FB
S1130730CF93DF9385E492E00FD180E492E0C5DFAC
S113074089E392E009D184E392E0BFDF8DE292E095
S113075003D188E292E0B9DF81E292E0FDD08CE13E
S113076092E0B3DF8CE192E0C5DFA82E81E292E053
S113077057D1C82EB92E88E292E0BCDFD82E8DE284
S113078092E04ED1F82EE92E84E392E0B3DF082FF5
S113079089E392E045D1D82F192F80E492E0AADFB3
S11307A0C82F85E492E03CD11F92AF92BF92CF92C2
S11307B01F92DF92EF92FF921F920F931F93DF938A
S11307C01F92CF939F938F9382E091E09F938F9397
S11307D0CCE4D2E0DF93CF937ED58DB79EB7449619
S11307E00FB6F8949EBF0FBE8DBF09900020E9F7A5
S11307F02197AE014C545240E0919002F091910245
S11308000280F381E02D6CE472E080E992E00995C6
S1130810DF91CF911F910F91FF90EF90DF90CF90D8
S1130820BF90AF90089549E068E085E492E01FD05E
S11308306AE080E492E02BDF4CE06BE089E392E035
S113084016D06DE084E392E022DF49E068E08DE2B7
S113085092E00DD06AE088E292E019DF49E068E0B6
S113086081E292E004D06AE08CE192E010CFEF9252
S1130870FF920F931F93CF93DF93CDB7DEB72A97E1
S11308800FB6F894DEBF0FBECDBF8C01F62EE42E5A
S1130890FCDE82E090E09A878987F801F382E482A3
S11308A06F2DC801A2DCF82EF8016481C8019DDC1B
S11308B0F81621F083E0F801808341C0F8016381D8
S11308C0C801FCDB811104C082E0F801808337C0D9
S11308D0F8016381C80120DC811104C082E0F801C1
S11308E080832DC0F8016481C801E8DB811104C054
S11308F082E0F801808323C0F8016481C8010CDC24
S1130900811104C082E0F801808319C0F8011082CB
S11309106381C8016ADCF8018183838189838481CE
S11309208A8398012E5F3F4FAE01475F5F4FBE0140
S11309306F5F7F4FC80169DCF801168215822A9621
S11309400FB6F894DEBF0FBECDBFDF91CF911F91DC
S11309500F91FF90EF900895CF93DF93EC0188817E
S113096081115BC0BE016F5F7F4F4CE852E0CE0146
S113097020DC40918C0250E0EB81F0E0EE0FFF1F91
S1130980EE0FFF1FEE0FFF1FE558FE4F26818681F5
S113099061E070E0FB0102C0EE0FFF1F2A95E2F751
S11309A09F012423352302C0359527958A95E2F7C4
S11309B020938D02EC81F0E0EE0FFF1FEE0FFF1F7E
S11309C0EE0FFF1FE558FE4F9681868102C0660F29
S11309D0771F9A95E2F746235723BA0102C075950B
S11309E067958A95E2F7CB0160938E02E0918F02BE
S11309F0EE0FEE0F2E2B880F282B20938F028D8164
S1130A009E812F70E22FF0E0E55DFE4F2081820F82
S1130A10911D27FD9A959E838D83DF91CF91089533
S1130A20FC0125813681822F932F0895462F572F5D
S1130A302BE331E0622F732F45C4CF93DF9300D0B3
S1130A40CDB7DEB78091000190910101009711F4B8
S1130A5083E493E09E012F5F3F4F281B390B822FC5
S1130A60932F0F900F90DF91CF910895CF93DF9341
S1130A70CDB7DEB764970FB6F894DEBF0FBECDBF17
S1130A8064E170E0CE010196D1DF6FE471E080E9AA
S1130A9092E061D2BE016F5F7F4F80E992E077D22E
S1130AA065E571E080E992E056D21ED04AE050E05C
S1130AB0BC0180E992E0E3D26CE571E080E992E068
S1130AC04AD2BBDF4AE050E0BC0180E992E035D372
S1130AD080E992E048D264960FB6F894DEBF0FBE68
S1130AE0CDBFDF91CF91089587E290E00895FC0196
S1130AF084859585FC01E05CFF4F20813181FC01F8
S1130B00EE5BFF4F80819181281B390B2F733327B4
S1130B10C9010895FC0184859585FC01E05CFF4FC3
S1130B2040815181FC01EE5BFF4F208131814217EE
S1130B30530741F00190F081E02DE80FF91F208167
S1130B4030E002C02FEF3FEFC9010895FC01848516
S1130B509585FC01E05CFF4F40815181FC01EE5B17
S1130B60FF4F208131814217530781F0A081B18169
S1130B70A80FB91F8C91208131812F5F3F4F2F73B4
S1130B80332731832083282F30E002C02FEF3FEF3B
S1130B90C9010895FC0181A1882329F0A489B5899C
S1130BA08C9186FFFBCF11A20895CF93DF93FC01B4
S1130BB026853785D901A05CBF4F8D919C911197F3
S1130BC001968F739927E901CE5BDF4F48815981E4
S1130BD084179507D9F30D90BC91A02DA20FB31FD4
S1130BE06C93A685B785A05CBF4F11969C938E939A
S1130BF0A689B7892C9181E090E0078C02C0880F08
S1130C00991F0A94E2F7282B2C9381E081A304888E
S1130C10F589E02D80818064808381E090E0DF911C
S1130C20CF91089508951F920F920FB60F92112439
S1130C302F933F934F938F939F93EF93FF938091C1
S1130C40C00082FD1CC04091C60080913603909183
S1130C50370301968F739927209138033091390314
S1130C608217930771F0E0913603F0913703EA504D
S1130C70FD4F4083909337038093360302C08091E5
S1130C80C600FF91EF919F918F914F913F912F91CA
S1130C900F900FBE0F901F90189580E992E027DF08
S1130CA0892B09F0BFCF08951F920F920FB60F92B0
S1130CB011242F933F938F939F93EF93FF9320914E
S1130CC0F2023091F3028091F4029091F502281718
S1130CD0390731F48091C1008F7D8093C10014C025
S1130CE0E091F402F091F502EE54FD4F20818091E1
S1130CF0F4029091F50201968F7399279093F5026F
S1130D008093F4022093C600FF91EF919F918F91FD
S1130D103F912F910F900FBE0F901F901895CF9277
S1130D20DF92EF92FF92CF93DF93EC016A017B0194
S1130D30411581EE580761057105F1F0EC89FD89D3
S1130D4081E090E008A002C0880F991F0A94E2F79E
S1130D50808360E079E08DE390E0A70196018AD278
S1130D6021503109410951095695479537952795E1
S1130D70211580E1380790F0EC89FD89108260E844
S1130D8074E88EE190E0A701960174D221503109F4
S1130D90410951095695479537952795E889F98969
S1130DA03083EA89FB89208319A2EE89FF89408177
S1130DB081E090E09C010C8C02C0220F331F0A9446
S1130DC0E2F7422B4083EE89FF8940819C010D8C20
S1130DD002C0220F331F0A94E2F7422B4083EE89AC
S1130DE0FF8940819C010E8C02C0220F331F0A949C
S1130DF0E2F7422B4083EE89FF8920810F8C02C0E9
S1130E00880F991F0A94E2F7809582238083DF91EB
S1130E10CF91FF90EF90DF90CF90089510929302BE
S1130E201092920288EE93E0A0E0B0E080939402E6
S1130E3090939502A0939602B09397028EE691E068
S1130E40909391028093900286EF92E090939D029A
S1130E5080939C0282EB92E090939F0280939E0287
S1130E6085EC90E09093A1028093A00284EC90E042
S1130E709093A3028093A20280EC90E09093A50249
S1130E808093A40281EC90E09093A7028093A60241
S1130E9082EC90E09093A9028093A80286EC90E003
S1130EA09093AB028093AA0284E08093AC0283E027
S1130EB08093AD0287E08093AE0285E08093AF0219
S1130EC081E08093B00208959AD122DCCDE4D6E08B
S1130ED027DC2097E9F3E1DEFBCFCF92DF92EF929C
S1130EE0FF920F931F93CF93DF936C01EB017A0171
S1130EF0E60EF71E00E010E00BC06991D601ED91FB
S1130F00FC910190F081E02DC6010995080F191F8D
S1130F10CE15DF0591F7C801DF91CF911F910F9195
S1130F20FF90EF90DF90CF9008956115710581F0E7
S1130F30DB010D900020E9F7AD0141505109461B3A
S1130F40570BDC01ED91FC910280F381E02D0994B3
S1130F5080E090E00895E9CFDC01ED91FC910190EF
S1130F60F081E02D09940F931F93CF93DF93EC014D
S1130F706DE0F2DF8C016AE0CE01EEDF9C01200F10
S1130F80311FC901DF91CF911F910F9108950F93E4
S1130F901F93CF93DF93EC01C8DF8C01CE01E3DF15
S1130FA09801280F391FC901DF91CF911F910F912B
S1130FB008954F925F926F927F929F92AF92BF92E9
S1130FC0CF92DF92EF92FF920F931F93CF93DF9311
S1130FD0CDB7DEB7A1970FB6F894DEBF0FBECDBF75
S1130FE05C016A017B01922E19A281E0821710F044
S1130FF08AE0982E8E010F5D1F4F492C512C612CD5
S1131000712CC701B601A301920134D18C2D929E9B
S113101080191124015011098A3010F4805D01C037
S1131020895CF801808369017A01C114D104E10467
S1131030F10439F7B801C50178DFA1960FB6F89429
S1131040DEBF0FBECDBFDF91CF911F910F91FF90F7
S1131050EF90DF90CF90BF90AF909F907F906F9074
S11310605F904F9008952115310541F4DC01ED9115
S1131070FC910190F081E02D642F09949ACF0F9395
S11310801F93CF93DF93EC019A01AB0160E070E012
S1131090EADF8C01CE0167DF9801280F391FC901EF
S11310A0DF91CF911F910F910895CF92DF92EF922C
S11310B0FF920F931F93CF93DF93EC016A017B019F
S11310C02115310579F4E881F9810190F081E02D51
S11310D0642FDF91CF911F910F91FF90EF90DF90DC
S11310E0CF9009942A30310519F477FD0DC02AE018
S11310F0B701A601CE01DF91CF911F910F91FF900F
S1131100EF90DF90CF9055CF6DE226DF8C0144271E
S11311105527BA014C195D096E097F092AE0CE01F1
S113112048DF080F191FC801DF91CF911F910F915C
S1131130FF90EF90DF90CF9008950F931F93CF937C
S1131140DF93EC019A01AB01662757FD6095762F7A
S1131150ACDF8C01CE0107DF9801280F391FC901CC
S1131160DF91CF911F910F9108951F920F920FB6A7
S11311700F9211242F933F938F939F93AF93BF9319
S113118080913A0390913B03A0913C03B0913D03BD
S113119030914203232F2D5F2D3720F40196A11D9A
S11311A0B11D05C0232F2A570296A11DB11D2093FE
S11311B0420380933A0390933B03A0933C03B09380
S11311C03D0380913E0390913F03A0914003B09171
S11311D041030196A11DB11D80933E0390933F03EB
S11311E0A0934003B0934103BF91AF919F918F911E
S11311F03F912F910F900FBE0F901F9018957894E8
S113120084B5826084BD84B5816084BD85B5826007
S113121085BD85B5816085BDEEE6F0E080818160A5
S11312208083E1E8F0E010828081826080838081A5
S113123081608083E0E8F0E0808181608083E1EB7D
S1131240F0E0808184608083E0EBF0E08081816065
S11312508083EAE7F0E0808184608083808182601B
S11312608083808181608083808180688083109204
S1131270C1000895A1E21A2EAA1BBB1BFD010DC0DB
S1131280AA1FBB1FEE1FFF1FA217B307E407F50732
S113129020F0A21BB30BE40BF50B661F771F881F0E
S11312A0991F1A9469F760957095809590959B01A4
S11312B0AC01BD01CF010895EE0FFF1F0590F4911D
S11312C0E02D0994FB01DC0102C001900D92415014
S11312D05040D8F70895AEE0B0E0E0E7F9E095C2F9
S11312E00D891E8986E08C831A8309838FEF9FE71B
S11312F09E838D83CE014996AC016F89788DCE0192
S1131300019608D0EF81F885E00FF11F10822E9628
S1131310E4E097C2ACE0B0E0EFE8F9E068C27C0139
S11313206B018A01FC0117821682838181FFB9C196
S113133088248394912C8C0E9D1EF7019381F601D1
S113134093FD859193FF81916F01882309F4A5C1D1
S1131350853239F493FD859193FF81916F01853234
S113136021F4B70190E0B9D1E8CF512C312C20E021
S11313702032A8F48B3261F028F4803251F08332A9
S113138071F40BC08D3239F0803349F4216028C0E8
S11313902260246025C0286023C0206121C027FD6D
S11313A027C0382F30533A3078F426FF06C0FAE0CD
S11313B05F9E300D1124532E13C08AE0389E300DE9
S11313C01124332E20620CC08E3221F426FD65C117
S11313D0206406C08C3611F4206802C0883641F4BB
S11313E0F60193FD859193FF81916F018111C0CF27
S11313F0982F9554933018F09052933028F40C5F42
S11314001F4FFFE3F9830DC0833631F0833771F04A
S1131410833509F05AC022C0F801808189830E5FA8
S11314201F4F44244394512C540114C03801F2E05A
S11314306F0E711CF801A080B18026FF03C0652DDA
S113144070E002C06FEF7FEFC5012C873BD12C0108
S113145083012C856FE7262E222217C03801F2E083
S11314606F0E711CF801A080B18026FF03C0652DAA
S113147070E002C06FEF7FEFC5012C8718D12C01FB
S11314802C8550E8252E222A830123FC1AC005C08E
S1131490B70180E290E021D13A94832D90E0481680
S11314A05906B0F30EC0F50127FC859127FE819102
S11314B05F01B70190E011D131103A94F1E04F1A75
S11314C051084114510479F7E5C0843611F0893686
S11314D039F5F80127FF07C060817181828193810A
S11314E00C5F1F4F08C060817181882777FD80954C
S11314F0982F0E5F1F4F4FE6B42EB22297FF09C0FC
S113150090958095709561957F4F8F4F9F4FF0E830
S1131510BF2A2AE030E0A4010CD1A82EA81842C0AA
S1131520853731F43FEEB32EB2222AE030E024C0F6
S113153099EFB92EB2228F36B9F020F4883509F02C
S1131540ACC00DC0803721F0883709F0A6C002C0B6
S113155020E1B22AB4FE0BC084E0B82A08C024FFFC
S113156009C0E6E0BE2A06C028E030E005C020E15C
S113157030E002C020E132E0F801B7FE07C060812C
S11315807181828193810C5F1F4F06C060817181DC
S113159080E090E00E5F1F4FA401CBD0A82EA818C6
S11315A0FFE7BF22B6FE0BC02B2D2E7FA51450F4EF
S11315B0B4FE0AC0B2FC08C02B2D2E7E05C07A2CC6
S11315C02B2D03C07A2C01C0752C24FF0DC0FE0105
S11315D0EA0DF11D8081803311F4297E09C022FFB8
S11315E006C07394739404C0822F867809F07394B0
S11315F023FD13C020FF0EC05A2C731458F4530C4F
S11316005718732C07C0B70180E290E02C8765D08F
S113161073942C857314B8F304C0731410F437183E
S113162001C0312C24FF11C0B70180E390E02C8766
S113163054D02C8522FF1CC021FF03C088E590E014
S113164002C088E790E0B7010CC0822F867881F051
S113165021FD02C080E201C08BE227FD8DE2B701CB
S113166090E03BD005C0B70180E390E036D05A94B7
S1131670A514C8F3AA94F401EA0DF11DB701808101
S113168090E02BD0A110F6CF05C0B70180E290E026
S113169024D03A943110F9CF50CEF7012681378106
S11316A002C02FEF3FEFC9012C96E2E1BCC0FC0160
S11316B00590615070400110D8F7809590958E0F79
S11316C09F1F0895FC016150704001900110D8F7EC
S11316D0809590958E0F9F1F08950F931F93CF931E
S11316E0DF938C01EB018B8181FD03C00FEF1FEFB2
S11316F01AC082FF0DC02E813F818C819D812817E5
S1131700390764F4E881F9810193F983E88306C019
S1131710E885F985802F0995892B41F78E819F8172
S113172001969F838E83C801DF91CF911F910F9102
S11317300895FA01AA27283051F1203181F1E89463
S11317406F936E7F6E5F7F4F8F4F9F4FAF4FB1E0B0
S11317503ED0B4E03CD0670F781F891F9A1FA11DAB
S1131760680F791F8A1F911DA11D6A0F711D811DAC
S1131770911DA11D20D009F468943F912AE0269F71
S113178011243019305D3193DEF6CF010895462FD0
S11317904770405D4193B3E00FD0C9F7F6CF462FB1
S11317A04F70405D4A3318F0495D31FD405241931A
S11317B002D0A9F7EACFB4E0A695979587957795D7
S11317C06795BA95C9F700976105710508959B015E
S11317D0AC010A2E06945795479537952795BA95E7
S11317E0C9F7620F731F841F951FA01D08952F92C0
S11317F03F924F925F926F927F928F929F92AF929D
S1131800BF92CF92DF92EF92FF920F931F93CF93E9
S1131810DF93CDB7DEB7CA1BDB0B0FB6F894DEBF80
S11318200FBECDBF09942A88398848885F846E84A6
S11318307D848C849B84AA84B984C884DF80EE80F0
S1131840FD800C811B81AA81B981CE0FD11D0FB6F9
S1131850F894DEBF0FBECDBFED010895F894FFCF1D
S11318604303256420256420256420256420256401
S11318702025642025642025640A0048656C6C6F6B
S113188020576F726C6421202D200000FF0100019D
S11318900000FFFF0000010001FF00323031342D51
S11318A030392D30312030332D32302D504D00441D
S11318B06174653A004275696C643A004672656504
S11318C02052414D202842293A0000000000D5054D
S10D18D06D077705A6058A05CA0511
S9030000FC
