:1000000035C000005AC0000058C0000056C00000B3
:1000100054C0000052C0000050C000004EC000009C
:100020004CC000004AC0000048C0000046C00000AC
:1000300044C0000042C0000040C000003EC00000BC
:100040000C9454093AC000008DC60000CCC60000D4
:1000500034C0000032C0000030C000002EC00000DC
:100060002CC000002AC00000A905AD0711241FBE46
:10007000CFEFD8E0DEBFCDBF11E0A0E0B1E0EEE908
:10008000F9E102C005900D92A638B107D9F722E038
:10009000A6E8B1E001C01D92AC3EB207E1F710E066
:1000A000CCE6D0E004C02297FE010E94FD09C836CC
:1000B000D107C9F7A8D70C94CD0CA2CF70E0FB01F3
:1000C000EE0FFF1FEE0FFF1FEE0FFF1FE957FE4F52
:1000D000878181111FC0FB01EE0FFF1FEE0FFF1F75
:1000E000EE0FFF1FE957FE4F8681A481B5812C9149
:1000F00041E050E0BA0102C0660F771F8A95E2F72F
:10010000CB018095909530E0822393238C9381E0FE
:100110008783089580E0089570E0FB01EE0FFF1FD4
:10012000EE0FFF1FEE0FFF1FE957FE4F8781813053
:10013000D1F4FB01EE0FFF1FEE0FFF1FEE0FFF1FAD
:10014000E957FE4F3681A081B1812C9181E090E08A
:1001500002C0880F991F3A95E2F7822B8C9382E0B8
:10016000878381E0089580E0089570E0FB01EE0F41
:10017000FF1FEE0FFF1FEE0FFF1FE957FE4F878196
:1001800081111AC0FB01EE0FFF1FEE0FFF1FEE0FD4
:10019000FF1FE957FE4F3681A481B5812C9181E084
:1001A00090E002C0880F991F3A95E2F7822B8C935A
:1001B00083E0878381E0089580E00895DB01EC917E
:1001C000F0E0EE0FFF1FEE0FFF1FEE0FFF1FE957CE
:1001D000FE4FA281B3818C912681668141E050E07F
:1001E000FA0102C0EE0FFF1F2A95E2F79F0190E08F
:1001F0002823392302C0359527956A95E2F7822F87
:10020000932F0895FB018081823051F0833079F083
:10021000813099F483B191818923FA018083089513
:1002200086B1FB0191818923FA018083089589B108
:10023000FB0191818923FA0180830895DA018C9171
:100240008230E8F58130D1F4DB01EC91F0E0EE0F83
:10025000FF1FEE0FFF1FEE0FFF1FE957FE4F368106
:100260000190F081E02D208181E090E002C0880FB4
:10027000991F3A95E2F7822B8083089581111FC060
:10028000DB01EC91F0E0EE0FFF1FEE0FFF1FEE0F12
:10029000FF1FE957FE4F86810190F081E02D2081FC
:1002A00041E050E0BA0102C0660F771F8A95E2F77D
:1002B000CB018095909530E082239323808308952D
:1002C0006E3018F4683050F403C0643128F402C072
:1002D00083E0089582E0089584E0089581E0089520
:1002E000AF92BF92DF92EF92FF920F931F93CF9343
:1002F000DF93DA0159018D919C9111971816190617
:100300000CF0C4C0E62FF72F80E090E004E021E07D
:1003100030E06894EE24E1F814E0FF24F3940F2E0B
:10032000F3E0DF2EF02D41914E3018F44830D8F52F
:1003300004C0443108F0A2C06CC00097F9F003304B
:10034000C9F450E0440F551F440F551F440F551F6B
:1003500049575E4FEA014E81E5016881E90102C01B
:10036000CC0FDD1F4A95E2F7AE01460F511DE501A6
:10037000488384C0E5011882012F80C050E0440FFB
:10038000551F440F551F440F551F49575E4FEA0133
:100390004E81D22F01C0DD0F4A95EAF74D2FE501BE
:1003A00048830D2D6BC00097F9F00130C9F450E07F
:1003B000440F551F440F551F440F551F49575E4F9B
:1003C000EA014E81E5016881E90102C0CC0FDD1F21
:1003D0004A95E2F7AE01460F511DE50148834EC034
:1003E000E5011882012F4AC050E0440F551F440F09
:1003F000551F440F551F49575E4FEA014E81D22FBA
:1004000001C0DD0F4A95EAF74D2FE50148830F2D16
:1004100035C00097F9F00230C9F450E0440F551F81
:10042000440F551F440F551F49575E4FEA014E8137
:10043000E5016881E90102C0CC0FDD1F4A95E2F7B2
:10044000AE01460F511DE501488318C0E501188231
:10045000012F14C050E0440F551F440F551F440F87
:10046000551F49575E4FEA014E81D22F01C0DD0F63
:100470004A95EAF74D2FE50148830E2D01966D91BF
:100480007C911197861797070CF44DCFDF91CF9190
:100490001F910F91FF90EF90DF90BF90AF90089564
:1004A0008091860181115BC14BE250E0509388013D
:1004B0004093870129E230E030938A01209389013B
:1004C0008AE290E090938C0180938B0110928D01D1
:1004D00010928E015093900140938F0130939201BE
:1004E00020939101909394018093930161E0609334
:1004F0009501109296015093980140939701309383
:100500009A012093990190939C0180939B01A2E012
:10051000A0939D0110929E015093A00140939F01D2
:100520003093A2012093A1019093A4018093A30191
:10053000F3E0F093A5011092A6015093A801409317
:10054000A7013093AA012093A9019093AC01809355
:10055000AB01E4E0E093AD011092AE015093B00125
:100560004093AF013093B2012093B1019093B40155
:100570008093B30175E07093B5011092B60150936A
:10058000B8014093B7013093BA012093B901909319
:10059000BC018093BB01B6E0B093BD011092BE01D7
:1005A0005093C0014093BF013093C2012093C10119
:1005B0009093C4018093C30187E08093C50110929A
:1005C000C60145E250E05093C8014093C70123E2C1
:1005D00030E03093CA012093C90184E290E0909307
:1005E000CC018093CB011092CD011092CE0150939B
:1005F000D0014093CF013093D2012093D101909349
:10060000D4018093D3016093D5011092D601509309
:10061000D8014093D7013093DA012093D901909308
:10062000DC018093DB01A093DD011092DE01509389
:10063000E0014093DF013093E2012093E1019093C8
:10064000E4018093E301F093E5011092E6015093F9
:10065000E8014093E7013093EA012093E901909388
:10066000EC018093EB01E093ED011092EE015093C9
:10067000F0014093EF013093F2012093F101909348
:10068000F4018093F3017093F5011092F60148E2B2
:1006900050E05093F8014093F70126E230E03093A8
:1006A000FA012093F90187E290E09093FC01809396
:1006B000FB011092FD011092FE0150930002409345
:1006C000FF01309302022093010290930402809371
:1006D00003026093050210920602509308024093B1
:1006E000070230930A022093090290930C02809330
:1006F0000B02A0930D0210920E0250931002409331
:100700000F023093120220931102909314028093EF
:100710001302F093150210921602509318024093A0
:10072000170230931A022093190290931C028093AF
:100730001B02E0931D0210921E0250932002409370
:100740001F0230932202209321029093240280936F
:100750002302709325021092260260938601089569
:100760009FCE08951F93CF93DF93EC01162FF8DFF0
:100770001B83612FCE01A2DC811104C082E088833B
:1007800019820AC06B81CE01C7DC811104C082E0EE
:100790008883198201C01882DF91CF911F9108953B
:1007A000CF93DF93EC01888181110CC0BE016D5F96
:1007B0007F4FCE0103DD892B19F481E0898302C0CC
:1007C00082E08983DF91CF910895FC012281222369
:1007D00019F01092270204C0FC0181818093270246
:1007E000809127020895EF92FF920F931F93CF936A
:1007F000DF93CDB7DEB72A970FB6F894DEBF0FBEF2
:10080000CDBF8C01F62EE42EABDF82E090E09A871C
:100810008987F801F182E2826F2DC80151DDF82E3F
:10082000F8016281C8014CDDF81621F083E0F8017F
:10083000808343C0F8016181C80140DC811104C09C
:1008400082E0F801808339C0F8016181C80164DC6D
:10085000811104C082E0F80180832FC0F801628119
:10086000C8012CDC811104C082E0F801808325C01E
:10087000F8016281C80150DC811104C082E0F801F6
:1008800080831BC0F80110826181C80119DDF80165
:1008900083838181898382818A8398012C5F3F4F82
:1008A000AE01475F5F4FBE016F5F7F4FC80118DD2C
:1008B00080E09DE7F801968385832A960FB6F89429
:1008C000DEBF0FBECDBFDF91CF911F910F91FF9083
:1008D000EF900895CF93DF93EC01888181115BC085
:1008E000BE016D5F7F4F48E252E0CE018BDC40914C
:1008F000280250E0E981F0E0EE0FFF1FEE0FFF1F2E
:10090000EE0FFF1FE957FE4F2681868161E070E000
:10091000FB0102C0EE0FFF1F2A95E2F79F0124237F
:10092000352302C0359527958A95E2F72093290251
:10093000EA81F0E0EE0FFF1FEE0FFF1FEE0FFF1F2B
:10094000E957FE4F9681868102C0660F771F9A9500
:10095000E2F746235723BA0102C0759567958A9539
:10096000E2F7CB0160932A02E0912B02EE0FEE0F2B
:100970002E2B880F282B20932B028D819E812F7088
:10098000E22FF0E0EA5FFE4F2081820F911D27FDEC
:100990009A959E838D83DF91CF910895FC012581E7
:1009A0003681822F932F0895E0CB08956DE088E380
:1009B00092E0FADF6CE088E392E0F6DF6BE088E338
:1009C00092E0F2DF40E052EC61E070E089E392E017
:1009D00045D2EBC0CF93DF9300D0CDB7DEB76983AC
:1009E0004A83AE014E5F5F4FBE016F5F7F4F26DCD3
:1009F0000F900F90DF91CF9108950F931F93CF9396
:100A0000DF93CDB7DEB7A6970FB6F894DEBF0FBE63
:100A1000CDBF83E392E0C4DE83E392E0D6DE813093
:100A200031F441E06DE088E392E0D4DF05C040E0BE
:100A30006DE088E392E0CEDF8CE292E04BDF8CE267
:100A400092E0ACDF909301018093000120910201BC
:100A5000309103012817390774F541E06CE088E311
:100A600092E0B8DF8CE292E099DF9F938F9386E16A
:100A700091E09F938F938E010F5F1F4F1F930F93F2
:100A8000C9D4F80101900020E9F73197AF01401B6C
:100A9000510BE0913902F0913A020280F381E02D8E
:100AA000B80189E392E009950F900F900F900F9095
:100AB0000F900F903BC08217930774F541E06BE0F5
:100AC00088E392E087DF8CE292E068DF9F938F9368
:100AD00085E291E09F938F938E010F5F1F4F1F93CD
:100AE0000F9398D4F80101900020E9F73197AF01F6
:100AF000401B510BE0913902F0913A020280F381E0
:100B0000E02DB80189E392E009950F900F900F90C6
:100B10000F900F900F900AC040E06CE088E392E0E5
:100B200059DF40E06BE088E392E054DF8091000100
:100B3000909101019093030180930201A6960FB654
:100B4000F894DEBF0FBECDBFDF91CF911F910F9103
:100B5000089588E392E004DE6AE083E392E002DE37
:100B600048E069E08CE292E03ECE462F572F26E423
:100B700031E0622F732F45C4CF93DF9300D0CDB700
:100B8000DEB78091040190910501009711F48CEE7D
:100B900092E09E012F5F3F4F281B390B822F932F2E
:100BA0000F900F90DF91CF910895CF93DF93CDB742
:100BB000DEB764970FB6F894DEBF0FBECDBF64E119
:100BC00070E0CE010196D1DF6AE571E089E392E041
:100BD00061D2BE016F5F7F4F89E392E077D260E61A
:100BE00071E089E392E056D21ED04AE050E0BC01A9
:100BF00089E392E0E3D267E671E089E392E04AD2CA
:100C0000BBDF4AE050E0BC0189E392E035D389E3E1
:100C100092E048D264960FB6F894DEBF0FBECDBF07
:100C2000DF91CF91089587E290E00895FC018485DB
:100C30009585FC01E05CFF4F20813181FC01EE5B7A
:100C4000FF4F80819181281B390B2F733327C901F6
:100C50000895FC0184859585FC01E05CFF4F40818F
:100C60005181FC01EE5BFF4F208131814217530718
:100C700041F00190F081E02DE80FF91F208130E074
:100C800002C02FEF3FEFC9010895FC0184859585CF
:100C9000FC01E05CFF4F40815181FC01EE5BFF4FA6
:100CA000208131814217530781F0A081B181A80FC3
:100CB000B91F8C91208131812F5F3F4F2F733327D4
:100CC00031832083282F30E002C02FEF3FEFC9018E
:100CD0000895FC0181A1882329F0A489B5898C910C
:100CE00086FFFBCF11A20895CF93DF93FC012685E9
:100CF0003785D901A05CBF4F8D919C9111970196CA
:100D00008F739927E901CE5BDF4F488159818417A2
:100D10009507D9F30D90BC91A02DA20FB31F6C9332
:100D2000A685B785A05CBF4F11969C938E93A6892C
:100D3000B7892C9181E090E0078C02C0880F991F41
:100D40000A94E2F7282B2C9381E081A30488F5898B
:100D5000E02D80818064808381E090E0DF91CF91FD
:100D6000089508951F920F920FB60F9211242F939A
:100D70003F934F938F939F93EF93FF938091C00086
:100D800082FD1CC04091C6008091DF029091E0027C
:100D900001968F7399272091E1023091E202821728
:100DA000930771F0E091DF02F091E002E156FD4F10
:100DB00040839093E0028093DF0202C08091C600DE
:100DC000FF91EF919F918F914F913F912F910F90B4
:100DD0000FBE0F901F90189589E392E027DF892BB3
:100DE00009F0BFCF08951F920F920FB60F921124F2
:100DF0002F933F938F939F93EF93FF9320919B02A9
:100E000030919C0280919D0290919E022817390793
:100E100031F48091C1008F7D8093C10014C0E091B6
:100E20009D02F0919E02E55AFD4F208180919D0226
:100E300090919E0201968F73992790939E028093C2
:100E40009D022093C600FF91EF919F918F913F915A
:100E50002F910F900FBE0F901F901895CF92DF9299
:100E6000EF92FF92CF93DF93EC016A017B01411572
:100E700081EE580761057105F1F0EC89FD8981E08B
:100E800090E008A002C0880F991F0A94E2F78083BF
:100E900060E079E08DE390E0A70196018AD22150CD
:100EA00031094109510956954795379527952115DF
:100EB00080E1380790F0EC89FD89108260E874E8E1
:100EC0008EE190E0A701960174D2215031094109C9
:100ED00051095695479537952795E889F9893083C3
:100EE000EA89FB89208319A2EE89FF89408181E08C
:100EF00090E09C010C8C02C0220F331F0A94E2F791
:100F0000422B4083EE89FF8940819C010D8C02C0F9
:100F1000220F331F0A94E2F7422B4083EE89FF89A8
:100F200040819C010E8C02C0220F331F0A94E2F70D
:100F3000422B4083EE89FF8920810F8C02C0880FED
:100F4000991F0A94E2F7809582238083DF91CF91E5
:100F5000FF90EF90DF90CF90089510923C02109296
:100F60003B0288EE93E0A0E0B0E080933D029093D6
:100F70003E02A0933F02B093400289E791E0909334
:100F80003A02809339028FE992E09093460280936F
:100F900045028BE592E0909348028093470285ECEE
:100FA00090E090934A028093490284EC90E0909301
:100FB0004C0280934B0280EC90E090934E02809321
:100FC0004D0281EC90E09093500280934F0282ECAE
:100FD00090E0909352028093510286EC90E09093BF
:100FE00054028093530284E08093550283E08093FF
:100FF000560287E08093570285E08093580281E093
:101000008093590208959AD1D1DCCCEED6E0F5DC7C
:101010002097E9F3E1DEFBCFCF92DF92EF92FF92D0
:101020000F931F93CF93DF936C01EB017A01E60ED0
:10103000F71E00E010E00BC06991D601ED91FC9124
:101040000190F081E02DC6010995080F191FCE15FA
:10105000DF0591F7C801DF91CF911F910F91FF90AC
:10106000EF90DF90CF9008956115710581F0DB015D
:101070000D900020E9F7AD0141505109461B570B77
:10108000DC01ED91FC910280F381E02D099480E078
:1010900090E00895E9CFDC01ED91FC910190F081A1
:1010A000E02D09940F931F93CF93DF93EC016DE034
:1010B000F2DF8C016AE0CE01EEDF9C01200F311FD0
:1010C000C901DF91CF911F910F9108950F931F9345
:1010D000CF93DF93EC01C8DF8C01CE01E3DF9801F1
:1010E000280F391FC901DF91CF911F910F910895EA
:1010F0004F925F926F927F929F92AF92BF92CF92E8
:10110000DF92EF92FF920F931F93CF93DF93CDB7B0
:10111000DEB7A1970FB6F894DEBF0FBECDBF5C015E
:101120006A017B01922E19A281E0821710F08AE0F9
:10113000982E8E010F5D1F4F492C512C612C712C64
:10114000C701B601A301920134D18C2D929E801962
:101150001124015011098A3010F4805D01C0895CAE
:10116000F801808369017A01C114D104E104F1041A
:1011700039F7B801C50178DFA1960FB6F894DEBF44
:101180000FBECDBFDF91CF911F910F91FF90EF90D8
:10119000DF90CF90BF90AF909F907F906F905F90C7
:1011A0004F9008952115310541F4DC01ED91FC913A
:1011B0000190F081E02D642F09949ACF0F931F9333
:1011C000CF93DF93EC019A01AB0160E070E0EADFBE
:1011D0008C01CE0167DF9801280F391FC901DF910B
:1011E000CF911F910F910895CF92DF92EF92FF92CE
:1011F0000F931F93CF93DF93EC016A017B012115BD
:10120000310579F4E881F9810190F081E02D642FB6
:10121000DF91CF911F910F91FF90EF90DF90CF90D2
:1012200009942A30310519F477FD0DC02AE0B70181
:10123000A601CE01DF91CF911F910F91FF90EF900A
:10124000DF90CF9055CF6DE226DF8C0144275527E4
:10125000BA014C195D096E097F092AE0CE0148DF09
:10126000080F191FC801DF91CF911F910F91FF90B7
:10127000EF90DF90CF9008950F931F93CF93DF935C
:10128000EC019A01AB01662757FD6095762FACDF24
:101290008C01CE0107DF9801280F391FC901DF91AA
:1012A000CF911F910F9108951F920F920FB60F9239
:1012B00011242F933F938F939F93AF93BF9380916C
:1012C000E3029091E402A091E502B091E602309130
:1012D000EB02232F2D5F2D3720F40196A11DB11DA8
:1012E00005C0232F2A570296A11DB11D2093EB02A2
:1012F0008093E3029093E402A093E502B093E602A8
:101300008091E7029091E802A091E902B091EA028F
:101310000196A11DB11D8093E7029093E802A0936E
:10132000E902B093EA02BF91AF919F918F913F91F3
:101330002F910F900FBE0F901F901895789484B541
:10134000826084BD84B5816084BD85B5826085BDC1
:1013500085B5816085BDEEE6F0E0808181608083A7
:10136000E1E8F0E01082808182608083808181608A
:101370008083E0E8F0E0808181608083E1EBF0E051
:10138000808184608083E0EBF0E0808181608083F5
:10139000EAE7F0E0808184608083808182608083DE
:1013A0008081816080838081806880831092C10009
:1013B0000895A1E21A2EAA1BBB1BFD010DC0AA1F96
:1013C000BB1FEE1FFF1FA217B307E407F50720F0AE
:1013D000A21BB30BE40BF50B661F771F881F991F29
:1013E0001A9469F760957095809590959B01AC0172
:1013F000BD01CF010895EE0FFF1F0590F491E02D80
:101400000994FB01DC0102C001900D924150504053
:10141000D8F70895AEE0B0E0EFE0FAE095C20D89AC
:101420001E8986E08C831A8309838FEF9FE79E8352
:101430008D83CE014996AC016F89788DCE010196DE
:1014400008D0EF81F885E00FF11F10822E96E4E0BE
:1014500097C2ACE0B0E0EEE2FAE068C27C016B015A
:101460008A01FC0117821682838181FFB9C1882419
:101470008394912C8C0E9D1EF7019381F60193FDB0
:10148000859193FF81916F01882309F4A5C185326D
:1014900039F493FD859193FF81916F01853221F499
:1014A000B70190E0B9D1E8CF512C312C20E02032A7
:1014B000A8F48B3261F028F4803251F0833271F459
:1014C0000BC08D3239F0803349F4216028C022608E
:1014D000246025C0286023C0206121C027FD27C0CB
:1014E000382F30533A3078F426FF06C0FAE05F9E7A
:1014F000300D1124532E13C08AE0389E300D112474
:10150000332E20620CC08E3221F426FD65C120648A
:1015100006C08C3611F4206802C0883641F4F6010A
:1015200093FD859193FF81916F018111C0CF982F19
:101530009554933018F09052933028F40C5F1F4F5D
:10154000FFE3F9830DC0833631F0833771F08335C3
:1015500009F05AC022C0F801808189830E5F1F4FB5
:1015600044244394512C540114C03801F2E06F0E0E
:10157000711CF801A080B18026FF03C0652D70E0CA
:1015800002C06FEF7FEFC5012C873BD12C01830197
:101590002C856FE7262E222217C03801F2E06F0E4D
:1015A000711CF801A080B18026FF03C0652D70E09A
:1015B00002C06FEF7FEFC5012C8718D12C012C855D
:1015C00050E8252E222A830123FC1AC005C0B7014A
:1015D00080E290E021D13A94832D90E0481659069C
:1015E000B0F30EC0F50127FC859127FE81915F01C4
:1015F000B70190E011D131103A94F1E04F1A51083F
:101600004114510479F7E5C0843611F0893639F573
:10161000F80127FF07C060817181828193810C5F8F
:101620001F4F08C060817181882777FD8095982FB2
:101630000E5F1F4F4FE6B42EB22297FF09C0909560
:101640008095709561957F4F8F4F9F4FF0E8BF2A2F
:101650002AE030E0A4010CD1A82EA81842C085379A
:1016600031F43FEEB32EB2222AE030E024C099EFED
:10167000B92EB2228F36B9F020F4883509F0ACC00B
:101680000DC0803721F0883709F0A6C002C020E1E4
:10169000B22AB4FE0BC084E0B82A08C024FF09C0F7
:1016A000E6E0BE2A06C028E030E005C020E130E0D8
:1016B00002C020E132E0F801B7FE07C0608171810D
:1016C000828193810C5F1F4F06C06081718180E031
:1016D00090E00E5F1F4FA401CBD0A82EA818FFE703
:1016E000BF22B6FE0BC02B2D2E7FA51450F4B4FEE6
:1016F0000AC0B2FC08C02B2D2E7E05C07A2C2B2DE3
:1017000003C07A2C01C0752C24FF0DC0FE01EA0D28
:10171000F11D8081803311F4297E09C022FF06C0AB
:101720007394739404C0822F867809F0739423FD18
:1017300013C020FF0EC05A2C731458F4530C5718C2
:10174000732C07C0B70180E290E02C8765D07394BA
:101750002C857314B8F304C0731410F4371801C047
:10176000312C24FF11C0B70180E390E02C8754D0C6
:101770002C8522FF1CC021FF03C088E590E002C039
:1017800088E790E0B7010CC0822F867881F021FDB8
:1017900002C080E201C08BE227FD8DE2B70190E03C
:1017A0003BD005C0B70180E390E036D05A94A51431
:1017B000C8F3AA94F401EA0DF11DB701808190E00D
:1017C0002BD0A110F6CF05C0B70180E290E024D065
:1017D0003A943110F9CF50CEF7012681378102C0FB
:1017E0002FEF3FEFC9012C96E2E1BCC0FC01059050
:1017F000615070400110D8F7809590958E0F9F1F13
:101800000895FC016150704001900110D8F7809557
:1018100090958E0F9F1F08950F931F93CF93DF9383
:101820008C01EB018B8181FD03C00FEF1FEF1AC00C
:1018300082FF0DC02E813F818C819D812817390741
:1018400064F4E881F9810193F983E88306C0E885AF
:10185000F985802F0995892B41F78E819F8101960B
:101860009F838E83C801DF91CF911F910F910895BF
:10187000FA01AA27283051F1203181F1E8946F93C1
:101880006E7F6E5F7F4F8F4F9F4FAF4FB1E03ED067
:10189000B4E03CD0670F781F891F9A1FA11D680F05
:1018A000791F8A1F911DA11D6A0F711D811D911D38
:1018B000A11D20D009F468943F912AE0269F1124AD
:1018C0003019305D3193DEF6CF010895462F477011
:1018D000405D4193B3E00FD0C9F7F6CF462F4F706C
:1018E000405D4A3318F0495D31FD4052419302D0CA
:1018F000A9F7EACFB4E0A695979587957795679570
:10190000BA95C9F700976105710508959B01AC016F
:101910000A2E06945795479537952795BA95C9F796
:10192000620F731F841F951FA01D08952F923F9271
:101930004F925F926F927F928F929F92AF92BF92DF
:10194000CF92DF92EF92FF920F931F93CF93DF938B
:10195000CDB7DEB7CA1BDB0B0FB6F894DEBF0FBEE8
:10196000CDBF09942A88398848885F846E847D8435
:101970008C849B84AA84B984C884DF80EE80FD8037
:101980000C811B81AA81B981CE0FD11D0FB6F894AD
:0E199000DEBF0FBECDBFED010895F894FFCF6E
:10199E00007D007DEC0200FF0100010000FFFF0052
:1019AE0000010001FF00566F6C756D653A202564CD
:1019BE002075700A00566F6C756D653A202564208F
:1019CE00646F776E0A0048656C6C6F20576F726C8F
:1019DE006421202D2000323031342D30372D303619
:1019EE002030322D35382D504D00446174653A004B
:1019FE004275696C643A00467265652052414D200D
:101A0E002842293A000000000074060C081606450C
:061A1E000629066906001E
:00000001FF
