S010000053616E64426F78322E7372656333
S11300000C9434000C9451000C9451000C94510045
S11300100C9451000C9451000C9451000C94510018
S11300200C9451000C9451000C9451000C94510008
S11300300C9451000C9451000C9451000C945100F8
S11300400C9451000C9451000C9451000C945100E8
S11300500C9451000C9451000C9451000C945100D8
S11300600C9451000C94510011241FBECFEFD8E022
S1130070DEBFCDBF11E0A0E0B1E0E0E4FEE002C0ED
S113008005900D92AE33B107D9F722E0AEE3B1E0AB
S113009001C01D92A432B207E1F70E94C0030C9480
S11300A01E070C94000088E0689FF0011124E15CB5
S11300B0FE4F8781811114C03681A481B5812C91B2
S11300C081E090E002C0880F991F3A95E2F780958D
S11300D0909530E0822393238C9381E08783089565
S11300E080E0089588E0689FF0011124E15CFE4FF0
S11300F08781813089F43681A081B1812C9181E09E
S113010090E0032E01C0880F0A94EAF7822B8C93A7
S113011082E0878381E0089580E00895DB01EC911B
S1130120B8E0EB9FF0011124E15CFE4FA281B381A2
S11301308C919681468121E030E002C0220F331F6A
S11301409A95E2F790E02823392302C03595279544
S11301504A95E2F7C9010895FB01DA0180818230F2
S113016031F0833031F0813041F493B103C096B162
S113017001C099B1818189238C930895643130F44D
S1130180E62FF0E0E05FFE4F8081089584E008955B
S1130190EF92FF921F93CF93DF93F901DB0180E08D
S11301A090E014E021E030E05BC0CD91CE3018F453
S11301B0C830C8F404C0C43108F051C028C0009746
S11301C019F01330D9F527C068E0C69FE001112467
S11301D0C15CDE4F6E81722F01C0770F6A95EAF71A
S11301E0708313E03CC0009719F0113039F513C047
S11301F068E0C69FE0011124C15CDE4F6E81722F5E
S113020001C0770F6A95EAF7708311E028C0009760
S1130210C1F0123099F468E0C69FE0011124C15C7A
S1130220DE4F6E81C081790102C0EE0CFF1C6A951D
S1130230E2F7B7016C0F711D608311C0108214E0E6
S11302400EC068E0C69FE0011124C15CDE4F6E81E0
S1130250722F01C0770F6A95EAF7708312E0019656
S1130260EA0168817981861797070CF49ECFDF91A4
S1130270CF911F91FF90EF90089580913E018111DD
S11302805BC14BE250E05093400140933F0129E2AF
S113029030E030934201209341018AE290E0909350
S11302A044018093430110924501109246015093FA
S11302B048014093470130934A01209349019093A8
S11302C04C0180934B0161E060934D0110924E010B
S11302D05093500140934F013093520120935101A8
S11302E09093540180935301A2E0A093550110927E
S11302F05601509358014093570130935A0120936B
S1130300590190935C0180935B01F3E0F0935D01EC
S113031010925E015093600140935F01309362013B
S1130320209361019093640180936301E4E0E0937E
S11303306501109266015093680140936701309300
S11303406A012093690190936C0180936B0175E0BD
S113035070936D0110926E015093700140936F0180
S1130360309372012093710190937401809373010F
S1130370B6E0B093750110927601509378014093E2
S1130380770130937A012093790190937C018093D3
S11303907B0187E080937D0110927E0145E250E06D
S11303A05093800140937F0123E230E03093820137
S11303B02093810184E290E09093840180938301EF
S11303C01092850110928601509388014093870111
S11303D030938A012093890190938C0180938B013F
S11303E060938D0110928E015093900140938F0180
S11303F030939201209391019093940180939301FF
S1130400A0939501109296015093980140939701FF
S113041030939A012093990190939C0180939B01BE
S1130420F0939D0110929E015093A00140939F016F
S11304303093A2012093A1019093A4018093A3017E
S1130440E093A5011092A6015093A8014093A7013F
S11304503093AA012093A9019093AC018093AB013E
S11304607093AD011092AE0148E250E05093B00198
S11304704093AF0126E230E03093B2012093B10102
S113048087E290E09093B4018093B3011092B50198
S11304901092B6015093B8014093B7013093BA015A
S11304A02093B9019093BC018093BB016093BD017B
S11304B01092BE015093C0014093BF013093C2011A
S11304C02093C1019093C4018093C301A093C501FB
S11304D01092C6015093C8014093C7013093CA01DA
S11304E02093C9019093CC018093CB01F093CD016B
S11304F01092CE015093D0014093CF013093D2019A
S11305002093D1019093D4018093D301E093D5013A
S11305101092D6015093D8014093D7013093DA0159
S11305202093D9019093DC018093DB017093DD016A
S11305301092DE0160933E0108950C943D010F93E7
S11305401F93CF93DF931F92CDB7DEB78C016983DE
S11305500E949D026981F8016283C8010E945300D0
S1130560811101C007C0F8016281C8010E947200B4
S1130570811105C082E0F8018083118202C0F80174
S113058010820F90DF91CF911F910F910895CF9317
S1130590DF93EC01888181110CC0BE016E5F7F4F37
S11305A0CE010E948E00892B11F481E001C082E00B
S11305B08983DF91CF910895FC012081222319F0D2
S11305C01092DF0104C0FC0181818093DF018091DE
S11305D0DF010895FF920F931F93CF93DF93CDB75D
S11305E0DEB72C970FB6F894DEBF0FBECDBF8C01DB
S11305F04C876B870E949D0282E090E09A878987EE
S11306006B85F80163834C854483C8010E94BE0056
S1130610F82EF8016481C8010E94BE00F81611F09A
S113062083E020C0F8016381C8010E945300811156
S113063001C017C0F8016381C8010E9472008111D2
S113064001C00FC0F8016481C8010E9453008111E8
S113065001C007C0F8016481C8010E9472008111C1
S113066004C082E0F80180831BC0F801108263811A
S1130670C8010E94BE00F80181838381898384813B
S11306808A8398012E5F3F4FAE01475F5F4FBE01E3
S11306906F5F7F4FC8010E94C800F801168215825F
S11306A02C960FB6F894DEBF0FBECDBFDF91CF916D
S11306B01F910F91FF900895CF93DF93EC018881F0
S11306C0811156C0BE016F5F7F4F42EE51E0CE01F3
S11306D00E94AC004091E20150E0EB8168E0E69FAB
S11306E0F0011124E15CFE4F2681668181E090E0F7
S11306F0FC0102C0EE0FFF1F2A95E2F79F0124239D
S1130700352302C0359527956A95E2F72093E101D8
S1130710EC8168E0E69FF0011124E15CFE4F668104
S1130720368102C0880F991F6A95E2F784239523C6
S113073002C0959587953A95E2F78093E0019091F0
S1130740E301990F990F922B880F892B8093E30172
S11307502D813E818F70E82FFF27E7FDF095E05053
S1130760FF4F8081280F311D87FD3A953E832D83ED
S1130770DF91CF910895FC0125813681C901089547
S1130780CF93DF93CDB7DEB766970FB6F894DEBF8D
S11307900FBECDBF88E090E00E942B046E0188E07C
S11307A0C80ED11C49E068E0C6010E94EA027E013D
S11307B093E1E90EF11C6AE0C7010E949F024CE03C
S11307C06DE08E010F5F1F4FC8010E94EA025E01B7
S11307D08FE0A80EB11C60E0C5010E949F02470192
S11307E0380184E2E82E81E0F82E04EE11E0C6011F
S11307F00E945C03C4010E94C702C3010E945C03FF
S1130800C5010E94C702C5010E94DC02282EC60150
S11308100E94BB03482E392EC4010E94DC02582ECC
S1130820C6010E94BB031F922F923F924F921F92C8
S11308305F929F938F93FF92EF921F930F930E9467
S1130840490484EE91E00E943D040FB6F894DEBFA3
S11308500FBECDBFCCCF9093C5008093C40088E178
S11308608093C1008EE08093C20008959091C000EF
S113087095FFFCCF8093C6000895CF93DF93EC01DE
S113088002C00E94360489918111FBCFDF91CF9180
S11308900895AEE0B0E0EFE4F4E00C94F5060D89C1
S11308A01E8986E08C831A8309838FEF9FE79E83DA
S11308B08D83CE014996AC016F89788DCE01019666
S11308C00E946B04EF81F885E00FF11F10822E96D1
S11308D0E4E00C941107ACE0B0E0E1E7F4E00C9440
S11308E0E7067C016B018A01FC0117821682838171
S11308F081FFC6C188248394912C8C0E9D1EF70120
S11309009381F60193FD859193FF81916F01882373
S113091009F4B2C1853239F493FD859193FF819135
S11309206F01853229F4B70190E00E945D06E7CF9C
S1130930512C312C20E02032A8F48B3261F028F4C1
S1130940803251F0833271F40BC08D3239F0803330
S113095049F4216028C02260246025C0286023C097
S1130960206121C027FD27C0382F30533A3078F456
S113097026FF06C0FAE05F9E300D1124532E13C0EB
S11309808AE0389E300D1124332E20620CC08E3242
S113099021F426FD71C1206406C08C3611F4206850
S11309A002C0883641F4F60193FD859193FF81914D
S11309B06F018111C0CF982F9554933018F0905245
S11309C0933028F40C5F1F4FFFE3F9830DC0833687
S11309D031F0833771F0833509F05EC023C0F8012C
S11309E0808189830E5F1F4F44244394512C54010A
S11309F015C03801F2E06F0E711CF801A080B180BF
S1130A0026FF03C0652D70E002C06FEF7FEFC501C4
S1130A102C870E9452062C0183012C856FE7262E19
S1130A20222218C03801F2E06F0E711CF801A08078
S1130A30B18026FF03C0652D70E002C06FEF7FEF29
S1130A40C5012C870E9447062C012C8550E8252ED1
S1130A50222A830123FC1CC006C0B70180E290E077
S1130A600E945D063A94832D90E048165906A8F337
S1130A700FC0F50127FC859127FE81915F01B70125
S1130A8090E00E945D0631103A94F1E04F1A51084B
S1130A904114510471F7EDC0843611F0893641F5E3
S1130AA0F80127FF07C060817181828193810C5F07
S1130AB01F4F08C060817181882777FD8095982F2A
S1130AC00E5F1F4F4FE6B42EB22297FF09C09095D8
S1130AD08095709561957F4F8F4F9F4FF0E8BF2AA7
S1130AE02AE030E0A4010E948906A82EA81843C079
S1130AF0853731F43FEEB32EB2222AE030E024C031
S1130B0099EFB92EB2228F36B9F020F4883509F066
S1130B10B3C00DC0803721F0883709F0ADC002C0E2
S1130B2020E1B22AB4FE0BC084E0B82A08C024FF36
S1130B3009C0E6E0BE2A06C028E030E005C020E196
S1130B4030E002C020E132E0F801B7FE07C0608166
S1130B507181828193810C5F1F4F06C06081718116
S1130B6080E090E00E5F1F4FA4010E948906A82E2A
S1130B70A818FFE7BF22B6FE0BC02B2D2E7FA514AD
S1130B8050F4B4FE0AC0B2FC08C02B2D2E7E05C062
S1130B907A2C2B2D03C07A2C01C0752C24FF0DC098
S1130BA0FE01EA0DF11D8081803311F4297E09C014
S1130BB022FF06C07394739404C0822F867809F0D0
S1130BC0739423FD14C020FF0FC05A2C731460F4D7
S1130BD0530C5718732C08C0B70180E290E02C879F
S1130BE00E945D0673942C857314B0F304C07314CF
S1130BF010F4371801C0312C24FF12C0B70180E370
S1130C0090E02C870E945D062C8522FF1EC021FFE8
S1130C1003C088E590E002C088E790E0B7010CC00B
S1130C20822F867891F021FD02C080E201C08BE220
S1130C3027FD8DE2B70190E00E945D0606C0B70172
S1130C4080E390E00E945D065A94A514C0F3AA9430
S1130C50F401EA0DF11DB701808190E00E945D0668
S1130C60A110F5CF06C0B70180E290E00E945D06B6
S1130C703A943110F8CF43CEF7012681378102C070
S1130C802FEF3FEFC9012C96E2E10C940307FC011E
S1130C900590615070400110D8F7809590958E0FA3
S1130CA09F1F0895FC016150704001900110D8F716
S1130CB0809590958E0F9F1F08950F931F93CF9348
S1130CC0DF938C01EB018B8181FD03C00FEF1FEFDC
S1130CD01AC082FF0DC02E813F818C819D8128170F
S1130CE0390764F4E881F9810193F983E88306C044
S1130CF0E885F985802F0995892B41F78E819F819D
S1130D0001969F838E83C801DF91CF911F910F912C
S1130D100895FA01AA27283051F1203181F1E8948D
S1130D206F936E7F6E5F7F4F8F4F9F4FAF4FB1E0DA
S1130D303ED0B4E03CD0670F781F891F9A1FA11DD5
S1130D40680F791F8A1F911DA11D6A0F711D811DD6
S1130D50911DA11D20D009F468943F912AE0269F9B
S1130D6011243019305D3193DEF6CF010895462FFA
S1130D704770405D4193B3E00FD0C9F7F6CF462FDB
S1130D804F70405D4A3318F0495D31FD4052419344
S1130D9002D0A9F7EACFB4E0A69597958795779501
S1130DA06795BA95C9F700976105710508959B0188
S1130DB0AC010A2E06945795479537952795BA9511
S1130DC0C9F7620F731F841F951FA01D08952F92EA
S1130DD03F924F925F926F927F928F929F92AF92C7
S1130DE0BF92CF92DF92EF92FF920F931F93CF9314
S1130DF0DF93CDB7DEB7CA1BDB0B0FB6F894DEBFAB
S1130E000FBECDBF09942A88398848885F846E84D0
S1130E107D848C849B84AA84B984C884DF80EE801A
S1130E20FD800C811B81AA81B981CE0FD11D0FB623
S1130E30F894DEBF0FBECDBFED010895F894FFCF47
S1130E4000FF0100010000FFFF0000010001FF009E
S1130E50030303030303030301010101010102026C
S1130E60020202024E657720646F776C6F61643A08
S1110E702025642025642025642025640A00C2
S9030000FC
