S012000053657269616C546573742E7372656312
S113000035C000005AC0000058C0000056C00000AF
S113001054C0000052C0000050C000004EC0000098
S11300204CC000004AC0000048C0000046C00000A8
S113003044C0000042C0000040C000003EC00000B8
S11300400C94AD083AC00000E6C5000025C60000C7
S113005034C0000032C0000030C000002EC00000D8
S11300602CC000002AC000000505060711241FBE8D
S1130070CFEFD8E0DEBFCDBF11E0A0E0B1E0E0E516
S1130080F8E102C005900D92A63AB107D9F723E032
S1130090A6EAB1E001C01D92AC30B207E1F710E06E
S11300A0CCE6D0E004C02297FE010E945609C8366F
S11300B0D107C9F701D70C94260CA2CF88E0689F1A
S11300C0F0011124E955FE4F8781811114C0368156
S11300D0A481B5812C9181E090E002C0880F991F22
S11300E03A95E2F78095909530E0822393238C93A0
S11300F081E08783089580E0089588E0689FF00197
S11301001124E955FE4F8781813089F43681A0811D
S1130110B1812C9181E090E0032E01C0880F0A94F4
S1130120EAF7822B8C9382E0878381E0089580E054
S1130130089588E0689FF0011124E955FE4F8781F6
S1130140811111C03681A481B5812C9181E090E0A8
S1130150032E01C0880F0A94EAF7822B8C9383E064
S1130160878381E0089580E00895DB01EC91B8E095
S1130170EB9FF0011124E955FE4FA281B3818C91CC
S11301809681468121E030E002C0220F331F9A9508
S1130190E2F790E02823392302C0359527954A9544
S11301A0E2F7C9010895FB01DA018081823031F060
S11301B0833031F0813041F493B103C096B101C072
S11301C099B1818189238C930895DA018C918230CD
S11301D080F5DB01EC918130A1F4B8E0EB9FF001F4
S11301E01124E955FE4F36810190F081E02D2081E4
S11301F081E090E0032E01C0880F0A94EAF7822B75
S113020017C088E0E89FF0011124E955FE4F3681BC
S11302100190F081E02D208181E090E002C0880F00
S1130220991F3A95E2F78095909530E082239323C5
S113023080830895643130F4E62FF0E0EA5FFE4FE6
S11302408081089584E00895EF92FF921F93CF93E5
S1130250DF93F901DB0180E090E014E021E030E07D
S11302605BC0CD91CE3018F4C830C8F404C0C4319A
S113027008F051C028C0009719F01330D9F527C0F1
S113028068E0C69FE0011124C955DE4F6E81722FCC
S113029001C0770F6A95EAF7708313E03CC00097BA
S11302A019F0113039F513C068E0C69FE00111243C
S11302B0C955DE4F6E81722F01C0770F6A95EAF738
S11302C0708311E028C00097C1F0123099F468E0FF
S11302D0C69FE0011124C955DE4F6E81C0817901AA
S11302E002C0EE0CFF1C6A95E2F7B7016C0F711D9A
S11302F0608311C0108214E00EC068E0C69FE00164
S11303001124C955DE4F6E81722F01C0770F6A9593
S1130310EAF7708312E00196EA0168817981861711
S113032097070CF49ECFDF91CF911F91FF90EF9030
S113033008958091A60181115BC14BE250E0509376
S1130340A8014093A70129E230E03093AA01209349
S1130350A9018AE290E09093AC018093AB011092E2
S1130360AD011092AE015093B0014093AF013093B0
S1130370B2012093B1019093B4018093B30161E081
S11303806093B5011092B6015093B8014093B70140
S11303903093BA012093B9019093BC018093BB01BF
S11303A0A2E0A093BD011092BE015093C0014093FE
S11303B0BF013093C2012093C1019093C401809383
S11303C0C301F3E0F093C5011092C6015093C80134
S11303D04093C7013093CA012093C9019093CC0183
S11303E08093CB01E4E0E093CD011092CE015093D1
S11303F0D0014093CF013093D2012093D101909347
S1130400D4018093D30175E07093D5011092D60185
S11304105093D8014093D7013093DA012093D90146
S11304209093DC018093DB01B6E0B093DD01109280
S1130430DE015093E0014093DF013093E201209309
S1130440E1019093E4018093E30187E08093E50167
S11304501092E60145E250E05093E8014093E70131
S113046023E230E03093EA012093E90184E290E052
S11304709093EC018093EB011092ED011092EE0148
S11304805093F0014093EF013093F2012093F10176
S11304909093F4018093F3016093F5011092F601B7
S11304A05093F8014093F7013093FA012093F90136
S11304B09093FC018093FB01A093FD011092FE0137
S11304C0509300024093FF013093020220930102F3
S11304D09093040280930302F093050210920602A3
S11304E0509308024093070230930A0220930902B2
S11304F090930C0280930B02E0930D0210920E0273
S11305005093100240930F02309312022093110271
S113051090931402809313027093150210921602A2
S113052048E250E0509318024093170226E230E06C
S113053030931A022093190287E290E090931C02F0
S113054080931B0210921D0210921E0250932002EF
S113055040931F023093220220932102909324029D
S1130560809323026093250210922602509328025E
S11305704093270230932A022093290290932C025D
S113058080932B02A0932D0210922E0250933002DE
S113059040932F023093320220933102909334021D
S11305A080933302F093350210923602509338024E
S11305B04093370230933A022093390290933C02DD
S11305C080933B02E0933D0210923E02509340021E
S11305D040933F023093420220934102909344029D
S11305E08093430270934502109246026093A601E1
S11305F008959FCE0F931F93CF93DF931F92CDB790
S1130600DEB78C016983F5DF6981F8016383C80172
S113061055DD811101C006C0F8016381C8016DDD9B
S1130620811105C082E0F8018083118202C0F801C3
S113063010820F90DF91CF911F910F910895CF9366
S1130640DF93EC01888181110BC0BE016D5F7F4F88
S1130650CE018BDD892B11F481E001C082E0898316
S1130660DF91CF910895FC012281222319F0109289
S1130670470204C0FC0181818093470280914702B4
S11306800895FF920F931F93CF93DF93CDB7DEB7F7
S11306902C970FB6F894DEBF0FBECDBF8C014C87EC
S11306A06B87A7DF82E090E09A8789876B85F801E2
S11306B061834C854283C801BDDDF82EF801628157
S11306C0C801B8DDF81611F083E01CC0F80161819F
S11306D0C801F4DC811101C014C0F8016181C801B2
S11306E00CDD811101C00DC0F8016281C801E6DC96
S11306F0811101C006C0F8016281C801FEDC8111CC
S113070004C082E0F801808319C0F801108261817D
S1130710C80190DDF80183838181898382818A8382
S113072098012C5F3F4FAE01475F5F4FBE016F5F83
S11307307F4FC80189DDF801168215822C960FB609
S1130740F894DEBF0FBECDBFDF91CF911F910F9103
S1130750FF900895CF93DF93EC018881811155C0F8
S1130760BE016D5F7F4F48E452E0CE011CDD409135
S1130770480250E0E98168E0E69FF0011124E95560
S1130780FE4F2681668181E090E0FC0102C0EE0FFD
S1130790FF1F2A95E2F79F012423352302C03595D4
S11307A027956A95E2F720934902EA8168E0E69F7B
S11307B0F0011124E955FE4F6681368102C0880F8D
S11307C0991F6A95E2F78423952302C0959587952E
S11307D03A95E2F780934A0290914B02990F990F50
S11307E0922B880F892B80934B022D813E818F7031
S11307F0E82FFF27E7FDF095E65EFE4F8081280F86
S1130800311D87FD3A953E832D83DF91CF91089565
S1130810FC0125813681C90108951F93CF93DF938D
S113082000D000D000D0CDB7DEB76DE088E592E00F
S113083080DC6CE088E592E07CDC6BE088E592E0AB
S113084078DC40E855E260E070E089E592E05FD250
S11308508DE08E8311E01D83AE014B5F5F4FBE01BF
S11308606A5F7F4F88E592E0B0DC8CE08C831B8369
S1130870AE014D5F5F4FBE016C5F7F4F88E592E034
S1130880A4DC8BE08A831983AE014F5F5F4FBE0106
S11308906E5F7F4F88E592E098DCE0D026960FB635
S11308A0F894DEBF0FBECDBFDF91CF911F910895A5
S11308B0CF93DF93CDB7DEB7E2970FB6F894DEBFE0
S11308C00FBECDBFE0915902F0915A020280F3812C
S11308D0E02D4BE050E06AE271E089E592E0099591
S11308E083E592E0ACDE83E592E0BDDE813051F435
S11308F08DE08AAB19AAAE014F5C5F4FBE016E5CFE
S11309007F4F0AC08DE088AB81E08FA7AE01415DC7
S11309105F4FBE01605D7F4F88E592E056DC8CE45A
S113092092E018DF8CE492E073DF909301018093EE
S11309300001209102013091030128173907B4F412
S11309408CE08EA781E08DA7AE01435D5F4FBE01B1
S1130950625D7F4F88E592E038DC809101018F93DE
S1130960809100018F9386E391E018C0821793076A
S11309701CF58BE08CA781E08BA7AE01455D5F4F32
S1130980BE01645D7F4F88E592E01FDC8091010128
S11309908F93809100018F9385E491E09F938F93CF
S11309A0CE0101969F938F938ED40F900F900F904A
S11309B00F900F900F9018C08CE08AA719A6AE0173
S11309C0475D5F4FBE01665D7F4F88E592E0FDDBCA
S11309D08BE088A71FA2AE01495D5F4FBE01685D31
S11309E07F4F88E592E0F1DB809100019091010155
S11309F09093030180930201E2960FB6F894DEBF50
S1130A000FBECDBFDF91CF91089588E592E0F1DD6F
S1130A106AE083E592E0EEDD48E069E08CE492E090
S1130A2030CEAB0126E631E0B90144C4CF93DF9365
S1130A3000D0CDB7DEB780910401909105010097F5
S1130A4011F48CE093E09E012F5F3F4F281B390B7C
S1130A50C9010F900F90DF91CF910895CF93DF9349
S1130A60CDB7DEB764970FB6F894DEBF0FBECDBF27
S1130A7064E170E0CE010196D4DF6AE771E089E5B4
S1130A8092E061D2BE016F5F7F4F89E592E077D239
S1130A9060E871E089E592E056D21ED04AE050E069
S1130AA0BC0189E592E0E3D267E871E089E592E070
S1130AB04AD2BCDF4AE050E0BC0189E592E035D37C
S1130AC089E592E048D264960FB6F894DEBF0FBE73
S1130AD0CDBFDF91CF91089587E290E00895FC01A6
S1130AE084859585FC01E05CFF4F20813181FC0108
S1130AF0EE5BFF4F80819181281B390B2F733327C5
S1130B00C9010895FC0184859585FC01E05CFF4FD3
S1130B1040815181FC01EE5BFF4F208131814217FE
S1130B20530741F00190F081E02DE80FF91F208177
S1130B3030E002C02FEF3FEFC9010895FC01848526
S1130B409585FC01E05CFF4F40815181FC01EE5B27
S1130B50FF4F208131814217530781F0A081B18179
S1130B60A80FB91F8C91208131812F5F3F4F2F73C4
S1130B70332731832083282F30E002C02FEF3FEF4B
S1130B80C9010895FC0181A1882329F0A489B589AC
S1130B908C9186FFFBCF11A20895CF93DF93FC01C4
S1130BA026853785D901A05CBF4F8D919C91119703
S1130BB001968F739927E901CE5BDF4F48815981F4
S1130BC084179507D9F30D90BC91A02DA20FB31FE4
S1130BD06C93A685B785A05CBF4F11969C938E93AA
S1130BE0A689B7892C9181E090E0078C02C0880F18
S1130BF0991F0A94E2F7282B2C9381E081A304889F
S1130C00F589E02D80818064808381E090E0DF912C
S1130C10CF91089508951F920F920FB60F92112449
S1130C202F933F934F938F939F93EF93FF938091D1
S1130C30C00082FD1CC04091C6008091FF029091CB
S1130C40000301968F7399272091010330910203C9
S1130C508217930771F0E091FF02F0910003E154D1
S1130C60FD4F4083909300038093FF0202C0809164
S1130C70C600FF91EF919F918F914F913F912F91DA
S1130C800F900FBE0F901F90189589E592E027DF13
S1130C90892B09F0BFCF08951F920F920FB60F92C0
S1130CA011242F933F938F939F93EF93FF9320915E
S1130CB0BB023091BC028091BD029091BE02281704
S1130CC0390731F48091C1008F7D8093C10014C035
S1130CD0E091BD02F091BE02E558FD4F2081809164
S1130CE0BD029091BE0201968F7399279093BE0224
S1130CF08093BD022093C600FF91EF919F918F9145
S1130D003F912F910F900FBE0F901F901895CF9287
S1130D10DF92EF92FF92CF93DF93EC016A017B01A4
S1130D20411581EE580761057105F1F0EC89FD89E3
S1130D3081E090E008A002C0880F991F0A94E2F7AE
S1130D40808360E079E08DE390E0A70196018AD288
S1130D5021503109410951095695479537952795F1
S1130D60211580E1380790F0EC89FD89108260E854
S1130D7074E88EE190E0A701960174D22150310904
S1130D80410951095695479537952795E889F98979
S1130D903083EA89FB89208319A2EE89FF89408187
S1130DA081E090E09C010C8C02C0220F331F0A9456
S1130DB0E2F7422B4083EE89FF8940819C010D8C30
S1130DC002C0220F331F0A94E2F7422B4083EE89BC
S1130DD0FF8940819C010E8C02C0220F331F0A94AC
S1130DE0E2F7422B4083EE89FF8920810F8C02C0F9
S1130DF0880F991F0A94E2F7809582238083DF91FC
S1130E00CF91FF90EF90DF90CF90089510925C0205
S1130E1010925B0288EE93E0A0E0B0E080935D0264
S1130E2090935E02A0935F02B093600289E991E01F
S1130E3090935A02809359028FEB92E0909366024A
S1130E40809365028BE792E0909368028093670237
S1130E5085EC90E090936A028093690284EC90E0C0
S1130E6090936C0280936B0280EC90E090936E02FE
S1130E7080936D0281EC90E09093700280936F02F6
S1130E8082EC90E0909372028093710286EC90E081
S1130E90909374028093730284E08093750283E0DC
S1130EA08093760287E08093770285E080937802CE
S1130EB081E08093790208959AD1AFDCC5E4D6E04D
S1130EC0F7DC2097E9F3E1DEFBCFCF92DF92EF92DC
S1130ED0FF920F931F93CF93DF936C01EB017A0181
S1130EE0E60EF71E00E010E00BC06991D601ED910B
S1130EF0FC910190F081E02DC6010995080F191F9E
S1130F00CE15DF0591F7C801DF91CF911F910F91A5
S1130F10FF90EF90DF90CF9008956115710581F0F7
S1130F20DB010D900020E9F7AD0141505109461B4A
S1130F30570BDC01ED91FC910280F381E02D0994C3
S1130F4080E090E00895E9CFDC01ED91FC910190FF
S1130F50F081E02D09940F931F93CF93DF93EC015D
S1130F606DE0F2DF8C016AE0CE01EEDF9C01200F20
S1130F70311FC901DF91CF911F910F9108950F93F4
S1130F801F93CF93DF93EC01C8DF8C01CE01E3DF25
S1130F909801280F391FC901DF91CF911F910F913B
S1130FA008954F925F926F927F929F92AF92BF92F9
S1130FB0CF92DF92EF92FF920F931F93CF93DF9321
S1130FC0CDB7DEB7A1970FB6F894DEBF0FBECDBF85
S1130FD05C016A017B01922E19A281E0821710F054
S1130FE08AE0982E8E010F5D1F4F492C512C612CE5
S1130FF0712CC701B601A301920134D18C2D929EAC
S113100080191124015011098A3010F4805D01C047
S1131010895CF801808369017A01C114D104E10477
S1131020F10439F7B801C50178DFA1960FB6F89439
S1131030DEBF0FBECDBFDF91CF911F910F91FF9007
S1131040EF90DF90CF90BF90AF909F907F906F9084
S11310505F904F9008952115310541F4DC01ED9125
S1131060FC910190F081E02D642F09949ACF0F93A5
S11310701F93CF93DF93EC019A01AB0160E070E022
S1131080EADF8C01CE0167DF9801280F391FC901FF
S1131090DF91CF911F910F910895CF92DF92EF923C
S11310A0FF920F931F93CF93DF93EC016A017B01AF
S11310B02115310579F4E881F9810190F081E02D61
S11310C0642FDF91CF911F910F91FF90EF90DF90EC
S11310D0CF9009942A30310519F477FD0DC02AE028
S11310E0B701A601CE01DF91CF911F910F91FF901F
S11310F0EF90DF90CF9055CF6DE226DF8C0144272F
S11311005527BA014C195D096E097F092AE0CE0101
S113111048DF080F191FC801DF91CF911F910F916C
S1131120FF90EF90DF90CF9008950F931F93CF938C
S1131130DF93EC019A01AB01662757FD6095762F8A
S1131140ACDF8C01CE0107DF9801280F391FC901DC
S1131150DF91CF911F910F9108951F920F920FB6B7
S11311600F9211242F933F938F939F93AF93BF9329
S11311708091030390910403A0910503B0910603A9
S113118030910B03232F2D5F2D3720F40196A11DE1
S1131190B11D05C0232F2A570296A11DB11D20930E
S11311A00B038093030390930403A0930503B0936C
S11311B006038091070390910803A0910903B0915D
S11311C00A030196A11DB11D8093070390930803A0
S11311D0A0930903B0930A03BF91AF919F918F919C
S11311E03F912F910F900FBE0F901F9018957894F8
S11311F084B5826084BD84B5816084BD85B5826018
S113120085BD85B5816085BDEEE6F0E080818160B5
S11312108083E1E8F0E010828081826080838081B5
S113122081608083E0E8F0E0808181608083E1EB8D
S1131230F0E0808184608083E0EBF0E08081816075
S11312408083EAE7F0E0808184608083808182602B
S11312508083808181608083808180688083109214
S1131260C1000895A1E21A2EAA1BBB1BFD010DC0EB
S1131270AA1FBB1FEE1FFF1FA217B307E407F50742
S113128020F0A21BB30BE40BF50B661F771F881F1E
S1131290991F1A9469F760957095809590959B01B4
S11312A0AC01BD01CF010895EE0FFF1F0590F4912D
S11312B0E02D0994FB01DC0102C001900D92415024
S11312C05040D8F70895AEE0B0E0E8E6F9E095C202
S11312D00D891E8986E08C831A8309838FEF9FE72B
S11312E09E838D83CE014996AC016F89788DCE01A2
S11312F0019608D0EF81F885E00FF11F10822E9639
S1131300E4E097C2ACE0B0E0E7E8F9E068C27C0151
S11313106B018A01FC0117821682838181FFB9C1A6
S113132088248394912C8C0E9D1EF7019381F601E1
S113133093FD859193FF81916F01882309F4A5C1E1
S1131340853239F493FD859193FF81916F01853244
S113135021F4B70190E0B9D1E8CF512C312C20E031
S11313602032A8F48B3261F028F4803251F08332B9
S113137071F40BC08D3239F0803349F4216028C0F8
S11313802260246025C0286023C0206121C027FD7D
S113139027C0382F30533A3078F426FF06C0FAE0DD
S11313A05F9E300D1124532E13C08AE0389E300DF9
S11313B01124332E20620CC08E3221F426FD65C127
S11313C0206406C08C3611F4206802C0883641F4CB
S11313D0F60193FD859193FF81916F018111C0CF37
S11313E0982F9554933018F09052933028F40C5F52
S11313F01F4FFFE3F9830DC0833631F0833771F05B
S1131400833509F05AC022C0F801808189830E5FB8
S11314101F4F44244394512C540114C03801F2E06A
S11314206F0E711CF801A080B18026FF03C0652DEA
S113143070E002C06FEF7FEFC5012C873BD12C0118
S113144083012C856FE7262E222217C03801F2E093
S11314506F0E711CF801A080B18026FF03C0652DBA
S113146070E002C06FEF7FEFC5012C8718D12C010B
S11314702C8550E8252E222A830123FC1AC005C09E
S1131480B70180E290E021D13A94832D90E0481690
S11314905906B0F30EC0F50127FC859127FE819112
S11314A05F01B70190E011D131103A94F1E04F1A85
S11314B051084114510479F7E5C0843611F0893696
S11314C039F5F80127FF07C060817181828193811A
S11314D00C5F1F4F08C060817181882777FD80955C
S11314E0982F0E5F1F4F4FE6B42EB22297FF09C00C
S11314F090958095709561957F4F8F4F9F4FF0E841
S1131500BF2A2AE030E0A4010CD1A82EA81842C0BA
S1131510853731F43FEEB32EB2222AE030E024C006
S113152099EFB92EB2228F36B9F020F4883509F03C
S1131530ACC00DC0803721F0883709F0A6C002C0C6
S113154020E1B22AB4FE0BC084E0B82A08C024FF0C
S113155009C0E6E0BE2A06C028E030E005C020E16C
S113156030E002C020E132E0F801B7FE07C060813C
S11315707181828193810C5F1F4F06C060817181EC
S113158080E090E00E5F1F4FA401CBD0A82EA818D6
S1131590FFE7BF22B6FE0BC02B2D2E7FA51450F4FF
S11315A0B4FE0AC0B2FC08C02B2D2E7E05C07A2CD6
S11315B02B2D03C07A2C01C0752C24FF0DC0FE0115
S11315C0EA0DF11D8081803311F4297E09C022FFC8
S11315D006C07394739404C0822F867809F07394C0
S11315E023FD13C020FF0EC05A2C731458F4530C5F
S11315F05718732C07C0B70180E290E02C8765D0A0
S113160073942C857314B8F304C0731410F437184E
S113161001C0312C24FF11C0B70180E390E02C8776
S113162054D02C8522FF1CC021FF03C088E590E024
S113163002C088E790E0B7010CC0822F867881F061
S113164021FD02C080E201C08BE227FD8DE2B701DB
S113165090E03BD005C0B70180E390E036D05A94C7
S1131660A514C8F3AA94F401EA0DF11DB701808111
S113167090E02BD0A110F6CF05C0B70180E290E036
S113168024D03A943110F9CF50CEF7012681378116
S113169002C02FEF3FEFC9012C96E2E1BCC0FC0170
S11316A00590615070400110D8F7809590958E0F89
S11316B09F1F0895FC016150704001900110D8F7FC
S11316C0809590958E0F9F1F08950F931F93CF932E
S11316D0DF938C01EB018B8181FD03C00FEF1FEFC2
S11316E01AC082FF0DC02E813F818C819D812817F5
S11316F0390764F4E881F9810193F983E88306C02A
S1131700E885F985802F0995892B41F78E819F8182
S113171001969F838E83C801DF91CF911F910F9112
S11317200895FA01AA27283051F1203181F1E89473
S11317306F936E7F6E5F7F4F8F4F9F4FAF4FB1E0C0
S11317403ED0B4E03CD0670F781F891F9A1FA11DBB
S1131750680F791F8A1F911DA11D6A0F711D811DBC
S1131760911DA11D20D009F468943F912AE0269F81
S113177011243019305D3193DEF6CF010895462FE0
S11317804770405D4193B3E00FD0C9F7F6CF462FC1
S11317904F70405D4A3318F0495D31FD405241932A
S11317A002D0A9F7EACFB4E0A695979587957795E7
S11317B06795BA95C9F700976105710508959B016E
S11317C0AC010A2E06945795479537952795BA95F7
S11317D0C9F7620F731F841F951FA01D08952F92D0
S11317E03F924F925F926F927F928F929F92AF92AD
S11317F0BF92CF92DF92EF92FF920F931F93CF93FA
S1131800DF93CDB7DEB7CA1BDB0B0FB6F894DEBF90
S11318100FBECDBF09942A88398848885F846E84B6
S11318207D848C849B84AA84B984C884DF80EE8000
S1131830FD800C811B81AA81B981CE0FD11D0FB609
S1131840F894DEBF0FBECDBFED010895F894FFCF2D
S1131850007D007D0C030303030303030303010161
S11318600101010102020202020200FF0100010063
S113187000FFFF0000010001FF0068656C6C6F2031
S1131880776F726C6400566F6C756D653A202564D1
S11318902075700A00566F6C756D653A20256420BA
S11318A0646F776E0A0048656C6C6F20576F726CBA
S11318B06421202D2000323031342D30362D323940
S11318C02030362D32312D504D00446174653A007C
S11318D04275696C643A00467265652052414D2038
S11318E02842293A0000000000CD0565076F059ED7
S10918F0058205C205009B
S9030000FC
