:100000000C9435000C945D000C945D000C945D0024
:100010000C945D000C945D000C945D000C945D00EC
:100020000C945D000C945D000C945D000C945D00DC
:100030000C945D000C945D000C945D000C945D00CC
:100040000C945D000C945D000C945D000C945D00BC
:100050000C945D000C945D000C945D000C945D00AC
:100060000C945D000C945D00840011241FBECFEF42
:10007000D8E0DEBFCDBF11E0A0E0B1E0E4ECF1E0FC
:1000800002C005900D92AE30B107D9F721E0AEE085
:10009000B1E001C01D92A131B207E1F710E0CAE65C
:1000A000D0E004C02297FE010E94DC00C836D107D0
:1000B000C9F70E945F000C94E0000C94000080E2FD
:1000C00084B987E690E00E94B8008EE091E00E943B
:1000D000910080E091E00E94CB002FEF83ED90E350
:1000E000215080409040E1F700C000008EE091E098
:1000F0000E94A4002FEF83ED90E3215080409040B8
:10010000E1F700C00000E1CF45E050E065E08EE09F
:1001100091E00E948C000895FC016283518340832A
:100120000895DC011296EC911297F0E040A121E0D5
:1001300030E0B9010C9002C0660F771F0A94E2F715
:10014000CB01842B80A30895DC011296EC911297C9
:10015000F0E040A121E030E0B9010C9002C0660F50
:10016000771F0A94E2F7CB018095842380A308953A
:100170009093C5008093C40088E18093C1008EE015
:100180008093C2000895E0ECF0E0908195FFFDCFF0
:100190008093C6000895CF93DF93EC018881882374
:1001A00031F021960E94C30089918111FBCFDF912C
:1001B000CF910895EE0FFF1F0590F491E02D099463
:0401C000F894FFCFE1
:0E01C40048454C4C4F20574F524C440A000007
:00000001FF
