S010000053616E64426F78322E7372656333
S11300000C9434000C9451000C9451000C94510045
S11300100C9451000C9451000C9451000C94510018
S11300200C9451000C9451000C9451000C94510008
S11300300C9451000C9451000C9451000C945100F8
S11300400C9451000C9451000C9451000C945100E8
S11300500C9451000C9451000C9451000C945100D8
S11300600C9451000C94510011241FBECFEFD8E022
S1130070DEBFCDBF11E0A0E0B1E0ECE3F0E102C0EF
S113008005900D92AA32B107D9F722E0AAE2B1E0B5
S113009001C01D92AC30B207E1F70E947A040C94BF
S11300A01C080C94000070E0FB01EE0FFF1FEE0F24
S11300B0FF1FEE0FFF1FE55DFE4F878181111FC0FB
S11300C0FB01EE0FFF1FEE0FFF1FEE0FFF1FE55D9D
S11300D0FE4F8681A481B5812C9141E050E0BA01A4
S11300E002C0660F771F8A95E2F7CB018095909541
S11300F030E0822393238C9381E08783089580E00A
S1130100089570E0FB01EE0FFF1FEE0FFF1FEE0FCF
S1130110FF1FE55DFE4F87818130D1F4FB01EE0FB7
S1130120FF1FEE0FFF1FEE0FFF1FE55DFE4F368131
S1130130A081B1812C9181E090E002C0880F991FC9
S11301403A95E2F7822B8C9382E0878381E00895CD
S113015080E00895DB01EC91F0E0EE0FFF1FEE0F5D
S1130160FF1FEE0FFF1FE55DFE4FA281B3818C914F
S11301702681668141E050E0FA0102C0EE0FFF1FC4
S11301802A95E2F79F0190E02823392302C0359590
S113019027956A95E2F7822F932F0895FB018081BA
S11301A0823051F0833079F0813099F483B19181B8
S11301B08923FA018083089586B1FB019181892303
S11301C0FA018083089589B1FB0191818923FA01A1
S11301D0808308956E3018F4683050F403C064319D
S11301E028F402C083E0089582E0089584E008952D
S11301F081E00895AF92BF92DF92EF92FF920F9346
S11302001F93CF93DF93DA0159018D919C9111973C
S1130210181619060CF0C4C0E62FF72F80E090E002
S113022004E021E030E06894EE24E1F814E0FF24D7
S1130230F3940F2EF3E0DF2EF02D41914E3018F49D
S11302404830D8F504C0443108F0A2C06CC000970F
S1130250F9F00330C9F450E0440F551F440F551F03
S1130260440F551F455D5E4FEA014E81E5016881EB
S1130270E90102C0CC0FDD1F4A95E2F7AE01460F3B
S1130280511DE501488384C0E5011882012F80C017
S113029050E0440F551F440F551F440F551F455D33
S11302A05E4FEA014E81D22F01C0DD0F4A95EAF775
S11302B04D2FE50148830D2D6BC00097F9F00130F7
S11302C0C9F450E0440F551F440F551F440F551FE8
S11302D0455D5E4FEA014E81E5016881E90102C096
S11302E0CC0FDD1F4A95E2F7AE01460F511DE50123
S11302F048834EC0E5011882012F4AC050E0440FE4
S1130300551F440F551F440F551F455D5E4FEA01AD
S11303104E81D22F01C0DD0F4A95EAF74D2FE5013A
S113032048830F2D35C00097F9F00230C9F450E02E
S1130330440F551F440F551F440F551F455D5E4F15
S1130340EA014E81E5016881E90102C0CC0FDD1F9D
S11303504A95E2F7AE01460F511DE501488318C0E6
S1130360E5011882012F14C050E0440F551F440FBB
S1130370551F440F551F455D5E4FEA014E81D22F34
S113038001C0DD0F4A95EAF74D2FE50148830E2D94
S113039001966D917C911197861797070CF44DCFB8
S11303A0DF91CF911F910F91FF90EF90DF90BF905D
S11303B0AF90089580912A0181115BC14BE250E016
S11303C050932C0140932B0129E230E030932E010D
S11303D020932D018AE290E09093300180932F01C5
S11303E01092310110923201509334014093330141
S11303F0309336012093350190933801809337016F
S113040061E06093390110923A0150933C014093AA
S11304103B0130933E0120933D0190934001809332
S11304203F01A2E0A0934101109242015093440184
S11304304093430130934601209345019093480132
S113044080934701F3E0F093490110924A015093DD
S11304504C0140934B0130934E0120934D019093F6
S1130460500180934F01E4E0E09351011092520156
S113047050935401409353013093560120935501F6
S1130480909358018093570175E07093590110922D
S11304905A0150935C0140935B0130935E012093B9
S11304A05D019093600180935F01B6E0B0936101B8
S11304B0109262015093640140936301309366018A
S11304C020936501909368018093670187E080938E
S11304D0690110926A0145E250E050936C01409327
S11304E06B0123E230E030936E0120936D0184E2CE
S11304F090E09093700180936F01109271011092BB
S113050072015093740140937301309376012093E8
S1130510750190937801809377016093790110922B
S11305207A0150937C0140937B0130937E012093A8
S11305307D019093800180937F01A09381011092AB
S11305408201509384014093830130938601209368
S113055085019093880180938701F093890110921B
S11305608A0150938C0140938B0130938E01209328
S11305708D019093900180938F01E09391011092EB
S113058092015093940140939301309396012093E8
S1130590950190939801809397017093990110921B
S11305A09A0148E250E050939C0140939B0126E25B
S11305B030E030939E0120939D0187E290E0909378
S11305C0A00180939F011092A1011092A201509367
S11305D0A4014093A3013093A6012093A501909315
S11305E0A8018093A7016093A9011092AA015093D6
S11305F0AC014093AB013093AE012093AD019093D5
S1130600B0018093AF01A093B1011092B201509355
S1130610B4014093B3013093B6012093B501909394
S1130620B8018093B701F093B9011092BA015093C5
S1130630BC014093BB013093BE012093BD01909354
S1130640C0018093BF01E093C1011092C201509395
S1130650C4014093C3013093C6012093C501909314
S1130660C8018093C7017093C9011092CA016093B5
S11306702A0108950E94DA0108951F93CF93DF930E
S1130680EC01162F0E943A031A83612FCE010E94B7
S11306905300811104C082E0888319820BC06A81EF
S11306A0CE010E948100811104C082E088831982F6
S11306B001C01882DF91CF911F910895CF93DF93EA
S11306C0EC01888181110DC0BE016E5F7F4FCE01A8
S11306D00E94AA00892B19F481E0898302C082E078
S11306E08983DF91CF910895FC012081222319F0A1
S11306F01092CB0104C0FC0181818093CB018091D5
S1130700CB010895EF92FF920F931F93CF93DF9342
S1130710CDB7DEB72A970FB6F894DEBF0FBECDBFB4
S11307208C01F62EE42E0E943A03F801178282E02F
S113073090E09A878987F182E2826F2DC8010E9436
S1130740EA00F82EF8016281C8010E94EA00F81656
S113075021F083E0F801808347C0F8016181C8017A
S11307600E945300811104C082E0F80180833CC0E0
S1130770F8016181C8010E948100811104C082E0F6
S1130780F801808331C0F8016281C8010E945300DE
S1130790811104C082E0F801808326C0F8016281DF
S11307A0C8010E948100811104C082E0F8018083A5
S11307B01BC0F80110826181C8010E94EA00F8019F
S11307C083838181898382818A8398012C5F3F4F4F
S11307D0AE01475F5F4FBE016F5F7F4FC8010E944C
S11307E0FA00F801168215822A960FB6F894DEBF35
S11307F00FBECDBFDF91CF911F910F91FF90EF906E
S113080008950F931F93CF93DF931F92CDB7DEB755
S11308108C01DC018C91811161C0B8016D5F7F4F47
S1130820AE014F5F5F4FC8010E94CE00898190E006
S1130830D8011196EC91F0E0EE0FFF1FEE0FFF1FB1
S1130840EE0FFF1FE55DFE4F4681A681F801228170
S1130850E22FF0E0EE0FFF1FEE0FFF1FEE0FFF1F62
S1130860E55DFE4F7681668121E030E0F90102C04A
S1130870EE0FFF1F4A95E2F7AF014823592302C048
S113088055954795AA95E2F7D8011796EC911797D5
S1130890EE0FEE0F4E2B02C0220F331F7A95E2F7B4
S11308A08223932302C0959587956A95E2F7880F72
S11308B0482B17964C93179715968D919C911697E4
S11308C04F70E42FF0E0E050FF4F2081820F911D24
S11308D027FD9A9516969C938E9315970F90DF910A
S11308E0CF911F910F910895FC0125813681822FAC
S11308F0932F0895CF93DF93CDB7DEB7E0970FB66C
S1130900F894DEBF0FBECDBF80E190E00E942505C4
S113091049E068E0CE0149960E9482036AE0CE0174
S11309208D960E943D034CE06BE0CE0141960E94FF
S113093082036DE0CE0189960E943D0349E068E0A0
S1130940CE0109960E9482036AE0CE0185960E9438
S11309503D0349E068E0CE0101960E9482036AE00B
S1130960CE0181960E943D030F2EF0E1EF2EF1E0BF
S1130970FF2EF02D0CEC11E0CE0149960E940104EB
S1130980CE018D960E945E03CE0141960E94010421
S1130990CE0189960E945E03CE0109960E9401044D
S11309A0CE0185960E945E03CE0101960E94010449
S11309B0CE0181960E945E03CE0181960E9474034B
S11309C0482ECE0101960E947404682E592ECE0141
S11309D085960E947403782ECE0109960E947404B1
S11309E0982E892ECE0189960E947403A82ECE01DA
S11309F041960E947404C82EB92ECE018D960E9491
S1130A007403D82ECE0149960E9474041F924F920B
S1130A105F926F921F927F928F929F921F92AF92DA
S1130A20BF92CF921F92DF929F938F93FF92EF9288
S1130A301F930F930E944705C8010E9438050FB603
S1130A40F894DEBF0FBECDBF97CF9093C5008093BF
S1130A50C40088E18093C1008EE08093C2000895B1
S1130A60E0ECF0E0908195FFFDCF8093C6000895FF
S1130A70CF93DF93EC018881882331F021960E9483
S1130A80300589918111FBCFDF91CF910895AEE0BC
S1130A90B0E0EDE4F5E00C94F3070D891E8986E0DF
S1130AA08C831A8309838FEF9FE79E838D83CE0106
S1130AB04996AC016F89788DCE0101960E94690533
S1130AC0EF81F885E00FF11F10822E96E4E00C947C
S1130AD00F08ACE0B0E0EFE6F5E00C94E5077C012C
S1130AE06B018A01FC0117821682838181FFC6C1D2
S1130AF088248394912C8C0E9D1EF7019381F6011A
S1130B0093FD859193FF81916F01882309F4B2C10C
S1130B10853239F493FD859193FF81916F0185327C
S1130B2029F4B70190E00E945B07E7CF512C312CE8
S1130B3020E02032A8F48B3261F028F4803251F0A6
S1130B40833271F40BC08D3239F0803349F4216063
S1130B5028C02260246025C0286023C0206121C0F1
S1130B6027FD27C0382F30533A3078F426FF06C0CB
S1130B70FAE05F9E300D1124532E13C08AE0389E94
S1130B80300D1124332E20620CC08E3221F426FD48
S1130B9071C1206406C08C3611F4206802C0883606
S1130BA041F4F60193FD859193FF81916F018111C9
S1130BB0C0CF982F9554933018F09052933028F466
S1130BC00C5F1F4FFFE3F9830DC0833631F0833789
S1130BD071F0833509F05EC023C0F80180818983F8
S1130BE00E5F1F4F44244394512C540115C0380107
S1130BF0F2E06F0E711CF801A080B18026FF03C0E3
S1130C00652D70E002C06FEF7FEFC5012C870E9455
S1130C1050072C0183012C856FE7262E222218C051
S1130C203801F2E06F0E711CF801A080B18026FF3C
S1130C3003C0652D70E002C06FEF7FEFC5012C8704
S1130C400E9445072C012C8550E8252E222A830179
S1130C5023FC1CC006C0B70180E290E00E945B0741
S1130C603A94832D90E048165906A8F30FC0F50175
S1130C7027FC859127FE81915F01B70190E00E94D6
S1130C805B0731103A94F1E04F1A510841145104B2
S1130C9071F7EDC0843611F0893641F5F80127FF6C
S1130CA007C060817181828193810C5F1F4F08C0EE
S1130CB060817181882777FD8095982F0E5F1F4F83
S1130CC04FE6B42EB22297FF09C090958095709597
S1130CD061957F4F8F4F9F4FF0E8BF2A2AE030E0A5
S1130CE0A4010E948707A82EA81843C0853731F4B1
S1130CF03FEEB32EB2222AE030E024C099EFB92EA1
S1130D00B2228F36B9F020F4883509F0B3C00DC093
S1130D10803721F0883709F0ADC002C020E1B22A43
S1130D20B4FE0BC084E0B82A08C024FF09C0E6E082
S1130D30BE2A06C028E030E005C020E130E002C051
S1130D4020E132E0F801B7FE07C060817181828141
S1130D5093810C5F1F4F06C06081718180E090E039
S1130D600E5F1F4FA4010E948707A82EA818FFE753
S1130D70BF22B6FE0BC02B2D2E7FA51450F4B4FE5B
S1130D800AC0B2FC08C02B2D2E7E05C07A2C2B2D58
S1130D9003C07A2C01C0752C24FF0DC0FE01EA0D9E
S1130DA0F11D8081803311F4297E09C022FF06C021
S1130DB07394739404C0822F867809F0739423FD8E
S1130DC014C020FF0FC05A2C731460F4530C57182E
S1130DD0732C08C0B70180E290E02C870E945B0767
S1130DE073942C857314B0F304C0731410F437187F
S1130DF001C0312C24FF12C0B70180E390E02C879E
S1130E000E945B072C8522FF1EC021FF03C088E5DA
S1130E1090E002C088E790E0B7010CC0822F86788A
S1130E2091F021FD02C080E201C08BE227FD8DE23A
S1130E30B70190E00E945B0706C0B70180E390E031
S1130E400E945B075A94A514C0F3AA94F401EA0D16
S1130E50F11DB701808190E00E945B07A110F5CFDE
S1130E6006C0B70180E290E00E945B073A9431101B
S1130E70F8CF43CEF7012681378102C02FEF3FEF31
S1130E80C9012C96E2E10C940108FC010590615023
S1130E9070400110D8F7809590958E0F9F1F08958C
S1130EA0FC016150704001900110D8F78095909535
S1130EB08E0F9F1F08950F931F93CF93DF938C0181
S1130EC0EB018B8181FD03C00FEF1FEF1AC082FF7E
S1130ED00DC02E813F818C819D812817390764F4D0
S1130EE0E881F9810193F983E88306C0E885F985EF
S1130EF0802F0995892B41F78E819F8101969F83CD
S1130F008E83C801DF91CF911F910F910895FA014B
S1130F10AA27283051F1203181F1E8946F936E7F34
S1130F206E5F7F4F8F4F9F4FAF4FB1E03ED0B4E025
S1130F303CD0670F781F891F9A1FA11D680F791F66
S1130F408A1F911DA11D6A0F711D811D911DA11D77
S1130F5020D009F468943F912AE0269F1124301987
S1130F60305D3193DEF6CF010895462F4770405D22
S1130F704193B3E00FD0C9F7F6CF462F4F70405DD1
S1130F804A3318F0495D31FD4052419302D0A9F72C
S1130F90EACFB4E0A6959795879577956795BA9526
S1130FA0C9F700976105710508959B01AC010A2EEC
S1130FB006945795479537952795BA95C9F7620FC3
S1130FC0731F841F951FA01D08952F923F924F9267
S1130FD05F926F927F928F929F92AF92BF92CF92C5
S1130FE0DF92EF92FF920F931F93CF93DF93CDB7CE
S1130FF0DEB7CA1BDB0B0FB6F894DEBF0FBECDBF46
S113100009942A88398848885F846E847D848C8416
S11310109B84AA84B984C884DF80EE80FD800C811F
S11310201B81AA81B981CE0FD11D0FB6F894DEBF02
S10F10300FBECDBFED010895F894FFCF72
S113103C00FF0100010000FFFF0000010001FF00A0
S113104C256420256420256420256420256420251E
S10D105C64202564202564200A00A6
S9030000FC
